{
  "_format": "hh-sol-artifact-1",
  "contractName": "ShinraiPass",
  "sourceName": "contracts/ShinraiPass.sol",
  "abi": [
    {
      "anonymous": false,
      "inputs": [
        {
          "indexed": true,
          "internalType": "address",
          "name": "previousOwner",
          "type": "address"
        },
        {
          "indexed": true,
          "internalType": "address",
          "name": "newOwner",
          "type": "address"
        }
      ],
      "name": "OwnershipTransferred",
      "type": "event"
    },
    {
      "inputs": [
        {
          "internalType": "uint256",
          "name": "_id",
          "type": "uint256"
        },
        {
          "internalType": "uint256",
          "name": "_amount",
          "type": "uint256"
        }
      ],
      "name": "buyTicket",
      "outputs": [],
      "stateMutability": "payable",
      "type": "function"
    },
    {
      "inputs": [
        {
          "internalType": "uint256",
          "name": "_id",
          "type": "uint256"
        },
        {
          "internalType": "uint256",
          "name": "_newAllocation",
          "type": "uint256"
        }
      ],
      "name": "changeAllocationPerUser",
      "outputs": [],
      "stateMutability": "nonpayable",
      "type": "function"
    },
    {
      "inputs": [
        {
          "internalType": "uint256",
          "name": "_id",
          "type": "uint256"
        },
        {
          "internalType": "uint256",
          "name": "_year",
          "type": "uint256"
        },
        {
          "internalType": "uint256",
          "name": "_month",
          "type": "uint256"
        },
        {
          "internalType": "uint256",
          "name": "_day",
          "type": "uint256"
        }
      ],
      "name": "changeDate",
      "outputs": [],
      "stateMutability": "nonpayable",
      "type": "function"
    },
    {
      "inputs": [
        {
          "internalType": "uint256",
          "name": "_id",
          "type": "uint256"
        },
        {
          "internalType": "string",
          "name": "_newDescription",
          "type": "string"
        }
      ],
      "name": "changeDescription",
      "outputs": [],
      "stateMutability": "nonpayable",
      "type": "function"
    },
    {
      "inputs": [
        {
          "internalType": "uint256",
          "name": "_id",
          "type": "uint256"
        },
        {
          "internalType": "string",
          "name": "_newMetadata",
          "type": "string"
        },
        {
          "internalType": "string",
          "name": "_newImageUrl",
          "type": "string"
        }
      ],
      "name": "changeMetadata",
      "outputs": [],
      "stateMutability": "nonpayable",
      "type": "function"
    },
    {
      "inputs": [
        {
          "internalType": "uint256",
          "name": "_id",
          "type": "uint256"
        },
        {
          "internalType": "uint256",
          "name": "_newPrice",
          "type": "uint256"
        }
      ],
      "name": "changePrice",
      "outputs": [],
      "stateMutability": "nonpayable",
      "type": "function"
    },
    {
      "inputs": [
        {
          "internalType": "uint256",
          "name": "_id",
          "type": "uint256"
        },
        {
          "internalType": "bool",
          "name": "_phase",
          "type": "bool"
        }
      ],
      "name": "changeSalePhase",
      "outputs": [],
      "stateMutability": "nonpayable",
      "type": "function"
    },
    {
      "inputs": [
        {
          "internalType": "uint256",
          "name": "_id",
          "type": "uint256"
        },
        {
          "internalType": "string",
          "name": "_newName",
          "type": "string"
        }
      ],
      "name": "changeShowName",
      "outputs": [],
      "stateMutability": "nonpayable",
      "type": "function"
    },
    {
      "inputs": [
        {
          "internalType": "uint256",
          "name": "_id",
          "type": "uint256"
        },
        {
          "internalType": "uint256",
          "name": "_newSupply",
          "type": "uint256"
        }
      ],
      "name": "changeSupply",
      "outputs": [],
      "stateMutability": "nonpayable",
      "type": "function"
    },
    {
      "inputs": [
        {
          "internalType": "uint256",
          "name": "_id",
          "type": "uint256"
        },
        {
          "internalType": "string",
          "name": "_newVenue",
          "type": "string"
        }
      ],
      "name": "changeVenue",
      "outputs": [],
      "stateMutability": "nonpayable",
      "type": "function"
    },
    {
      "inputs": [
        {
          "internalType": "string",
          "name": "_showName",
          "type": "string"
        },
        {
          "internalType": "string",
          "name": "_venue",
          "type": "string"
        },
        {
          "internalType": "string",
          "name": "_description",
          "type": "string"
        },
        {
          "internalType": "string",
          "name": "_imageUrl",
          "type": "string"
        },
        {
          "internalType": "uint256",
          "name": "_year",
          "type": "uint256"
        },
        {
          "internalType": "uint256",
          "name": "_month",
          "type": "uint256"
        },
        {
          "internalType": "uint256",
          "name": "_day",
          "type": "uint256"
        },
        {
          "internalType": "uint256",
          "name": "_price",
          "type": "uint256"
        },
        {
          "internalType": "uint256",
          "name": "_numberOfTickets",
          "type": "uint256"
        },
        {
          "internalType": "uint256",
          "name": "_purchaseLimit",
          "type": "uint256"
        },
        {
          "internalType": "address",
          "name": "_eventAddress",
          "type": "address"
        }
      ],
      "name": "createEvent",
      "outputs": [],
      "stateMutability": "nonpayable",
      "type": "function"
    },
    {
      "inputs": [
        {
          "internalType": "uint256",
          "name": "id",
          "type": "uint256"
        }
      ],
      "name": "getEventTotalSupply",
      "outputs": [
        {
          "internalType": "uint256",
          "name": "",
          "type": "uint256"
        }
      ],
      "stateMutability": "view",
      "type": "function"
    },
    {
      "inputs": [],
      "name": "numberOfEvents",
      "outputs": [
        {
          "internalType": "uint256",
          "name": "",
          "type": "uint256"
        }
      ],
      "stateMutability": "view",
      "type": "function"
    },
    {
      "inputs": [],
      "name": "owner",
      "outputs": [
        {
          "internalType": "address",
          "name": "",
          "type": "address"
        }
      ],
      "stateMutability": "view",
      "type": "function"
    },
    {
      "inputs": [
        {
          "internalType": "uint256",
          "name": "_id",
          "type": "uint256"
        },
        {
          "internalType": "uint256",
          "name": "_amount",
          "type": "uint256"
        }
      ],
      "name": "ownerMint",
      "outputs": [],
      "stateMutability": "nonpayable",
      "type": "function"
    },
    {
      "inputs": [],
      "name": "renounceOwnership",
      "outputs": [],
      "stateMutability": "nonpayable",
      "type": "function"
    },
    {
      "inputs": [],
      "name": "showAllEvents",
      "outputs": [
        {
          "components": [
            {
              "internalType": "uint256",
              "name": "id",
              "type": "uint256"
            },
            {
              "internalType": "string",
              "name": "showName",
              "type": "string"
            },
            {
              "internalType": "string",
              "name": "venue",
              "type": "string"
            },
            {
              "internalType": "string",
              "name": "description",
              "type": "string"
            },
            {
              "internalType": "string",
              "name": "imageUrl",
              "type": "string"
            },
            {
              "internalType": "uint256",
              "name": "year",
              "type": "uint256"
            },
            {
              "internalType": "uint256",
              "name": "month",
              "type": "uint256"
            },
            {
              "internalType": "uint256",
              "name": "day",
              "type": "uint256"
            },
            {
              "internalType": "uint256",
              "name": "price",
              "type": "uint256"
            },
            {
              "internalType": "uint256",
              "name": "numberOfTickets",
              "type": "uint256"
            },
            {
              "internalType": "uint256",
              "name": "purchaseLimit",
              "type": "uint256"
            },
            {
              "internalType": "bool",
              "name": "isSaleEnabled",
              "type": "bool"
            },
            {
              "internalType": "address",
              "name": "eventAddress",
              "type": "address"
            },
            {
              "internalType": "address",
              "name": "owner",
              "type": "address"
            }
          ],
          "internalType": "struct ShinraiPass.eventData[]",
          "name": "",
          "type": "tuple[]"
        }
      ],
      "stateMutability": "view",
      "type": "function"
    },
    {
      "inputs": [
        {
          "internalType": "uint256",
          "name": "_id",
          "type": "uint256"
        }
      ],
      "name": "showEventData",
      "outputs": [
        {
          "components": [
            {
              "internalType": "uint256",
              "name": "id",
              "type": "uint256"
            },
            {
              "internalType": "string",
              "name": "showName",
              "type": "string"
            },
            {
              "internalType": "string",
              "name": "venue",
              "type": "string"
            },
            {
              "internalType": "string",
              "name": "description",
              "type": "string"
            },
            {
              "internalType": "string",
              "name": "imageUrl",
              "type": "string"
            },
            {
              "internalType": "uint256",
              "name": "year",
              "type": "uint256"
            },
            {
              "internalType": "uint256",
              "name": "month",
              "type": "uint256"
            },
            {
              "internalType": "uint256",
              "name": "day",
              "type": "uint256"
            },
            {
              "internalType": "uint256",
              "name": "price",
              "type": "uint256"
            },
            {
              "internalType": "uint256",
              "name": "numberOfTickets",
              "type": "uint256"
            },
            {
              "internalType": "uint256",
              "name": "purchaseLimit",
              "type": "uint256"
            },
            {
              "internalType": "bool",
              "name": "isSaleEnabled",
              "type": "bool"
            },
            {
              "internalType": "address",
              "name": "eventAddress",
              "type": "address"
            },
            {
              "internalType": "address",
              "name": "owner",
              "type": "address"
            }
          ],
          "internalType": "struct ShinraiPass.eventData",
          "name": "",
          "type": "tuple"
        }
      ],
      "stateMutability": "view",
      "type": "function"
    },
    {
      "inputs": [
        {
          "internalType": "address",
          "name": "_deployer",
          "type": "address"
        }
      ],
      "name": "showEventsPerDeployer",
      "outputs": [
        {
          "components": [
            {
              "internalType": "uint256",
              "name": "id",
              "type": "uint256"
            },
            {
              "internalType": "string",
              "name": "showName",
              "type": "string"
            },
            {
              "internalType": "string",
              "name": "venue",
              "type": "string"
            },
            {
              "internalType": "string",
              "name": "description",
              "type": "string"
            },
            {
              "internalType": "string",
              "name": "imageUrl",
              "type": "string"
            },
            {
              "internalType": "uint256",
              "name": "year",
              "type": "uint256"
            },
            {
              "internalType": "uint256",
              "name": "month",
              "type": "uint256"
            },
            {
              "internalType": "uint256",
              "name": "day",
              "type": "uint256"
            },
            {
              "internalType": "uint256",
              "name": "price",
              "type": "uint256"
            },
            {
              "internalType": "uint256",
              "name": "numberOfTickets",
              "type": "uint256"
            },
            {
              "internalType": "uint256",
              "name": "purchaseLimit",
              "type": "uint256"
            },
            {
              "internalType": "bool",
              "name": "isSaleEnabled",
              "type": "bool"
            },
            {
              "internalType": "address",
              "name": "eventAddress",
              "type": "address"
            },
            {
              "internalType": "address",
              "name": "owner",
              "type": "address"
            }
          ],
          "internalType": "struct ShinraiPass.eventData[]",
          "name": "",
          "type": "tuple[]"
        }
      ],
      "stateMutability": "view",
      "type": "function"
    },
    {
      "inputs": [
        {
          "internalType": "address",
          "name": "_user",
          "type": "address"
        }
      ],
      "name": "showUserTickets",
      "outputs": [
        {
          "components": [
            {
              "internalType": "uint256",
              "name": "eventId",
              "type": "uint256"
            },
            {
              "internalType": "uint256",
              "name": "ticketId",
              "type": "uint256"
            },
            {
              "internalType": "string",
              "name": "showName",
              "type": "string"
            },
            {
              "internalType": "string",
              "name": "venue",
              "type": "string"
            },
            {
              "internalType": "string",
              "name": "description",
              "type": "string"
            },
            {
              "internalType": "string",
              "name": "imageUrl",
              "type": "string"
            },
            {
              "internalType": "uint256",
              "name": "year",
              "type": "uint256"
            },
            {
              "internalType": "uint256",
              "name": "month",
              "type": "uint256"
            },
            {
              "internalType": "uint256",
              "name": "day",
              "type": "uint256"
            },
            {
              "internalType": "uint256",
              "name": "price",
              "type": "uint256"
            },
            {
              "internalType": "address",
              "name": "owner",
              "type": "address"
            }
          ],
          "internalType": "struct ShinraiPass.ticketData[]",
          "name": "",
          "type": "tuple[]"
        }
      ],
      "stateMutability": "view",
      "type": "function"
    },
    {
      "inputs": [
        {
          "internalType": "address",
          "name": "newOwner",
          "type": "address"
        }
      ],
      "name": "transferOwnership",
      "outputs": [],
      "stateMutability": "nonpayable",
      "type": "function"
    },
    {
      "inputs": [
        {
          "internalType": "address",
          "name": "",
          "type": "address"
        },
        {
          "internalType": "uint256",
          "name": "",
          "type": "uint256"
        }
      ],
      "name": "userEventTicketCount",
      "outputs": [
        {
          "internalType": "uint256",
          "name": "",
          "type": "uint256"
        }
      ],
      "stateMutability": "view",
      "type": "function"
    },
    {
      "inputs": [],
      "name": "withdrawShinraiPassFunds",
      "outputs": [],
      "stateMutability": "nonpayable",
      "type": "function"
    },
    {
      "inputs": [
        {
          "internalType": "uint256",
          "name": "_id",
          "type": "uint256"
        }
      ],
      "name": "withdrawUserFunds",
      "outputs": [],
      "stateMutability": "nonpayable",
      "type": "function"
    },
    {
      "stateMutability": "payable",
      "type": "receive"
    }
  ],
  "bytecode": "0x60806040523480156200001157600080fd5b5062000032620000266200003860201b60201c565b6200004060201b60201c565b62000104565b600033905090565b60008060009054906101000a900473ffffffffffffffffffffffffffffffffffffffff169050816000806101000a81548173ffffffffffffffffffffffffffffffffffffffff021916908373ffffffffffffffffffffffffffffffffffffffff1602179055508173ffffffffffffffffffffffffffffffffffffffff168173ffffffffffffffffffffffffffffffffffffffff167f8be0079c531659141344cd1fd0a4f28419497f9722a3daafe3b4186f6b6457e060405160405180910390a35050565b614bd580620001146000396000f3fe60806040526004361061014f5760003560e01c80638da5cb5b116100b6578063d43cb3ab1161006f578063d43cb3ab14610476578063d47573d41461049f578063de6a06ed146104c8578063ecdf1561146104f1578063f2fde38b1461051a578063f8372ae21461054357610156565b80638da5cb5b146103545780639df0eb191461037f578063a3322038146103bc578063a3bc9918146103f9578063a6a53fe914610424578063b3de019c1461044d57610156565b8063505f02f211610108578063505f02f21461026e57806352268eda1461028557806360b4f184146102c257806361b029b5146102eb5780637099c2a514610314578063715018a61461033d57610156565b8063056096271461015b578063298ec208146101845780632ff67dcc146101a057806333961cce146101dd5780634423cfad146102065780634a50c4a21461024357610156565b3661015657005b600080fd5b34801561016757600080fd5b50610182600480360381019061017d9190613941565b61056c565b005b61019e6004803603810190610199919061399d565b610626565b005b3480156101ac57600080fd5b506101c760048036038101906101c29190613a3b565b610be5565b6040516101d49190613a8a565b60405180910390f35b3480156101e957600080fd5b5061020460048036038101906101ff9190613aa5565b610c0a565b005b34801561021257600080fd5b5061022d60048036038101906102289190613c09565b611000565b60405161023a9190613ef3565b60405180910390f35b34801561024f57600080fd5b506102586114ea565b6040516102659190613a8a565b60405180910390f35b34801561027a57600080fd5b506102836114f0565b005b34801561029157600080fd5b506102ac60048036038101906102a79190613f15565b6115af565b6040516102b99190613a8a565b60405180910390f35b3480156102ce57600080fd5b506102e960048036038101906102e4919061399d565b611671565b005b3480156102f757600080fd5b50610312600480360381019061030d9190613f6e565b6117d2565b005b34801561032057600080fd5b5061033b60048036038101906103369190613941565b611946565b005b34801561034957600080fd5b50610352611ab0565b005b34801561036057600080fd5b50610369611ac4565b6040516103769190613fbd565b60405180910390f35b34801561038b57600080fd5b506103a660048036038101906103a19190613f15565b611aed565b6040516103b3919061411b565b60405180910390f35b3480156103c857600080fd5b506103e360048036038101906103de9190613c09565b611e7f565b6040516103f09190614303565b60405180910390f35b34801561040557600080fd5b5061040e6122ee565b60405161041b9190613ef3565b60405180910390f35b34801561043057600080fd5b5061044b6004803603810190610446919061399d565b612719565b005b34801561045957600080fd5b50610474600480360381019061046f919061399d565b61287a565b005b34801561048257600080fd5b5061049d60048036038101906104989190614325565b6129db565b005b3480156104ab57600080fd5b506104c660048036038101906104c1919061399d565b612b7c565b005b3480156104d457600080fd5b506104ef60048036038101906104ea9190613941565b61317f565b005b3480156104fd57600080fd5b5061051860048036038101906105139190613f15565b613239565b005b34801561052657600080fd5b50610541600480360381019061053c9190613c09565b61335e565b005b34801561054f57600080fd5b5061056a600480360381019061056591906143b0565b6133e1565b005b3373ffffffffffffffffffffffffffffffffffffffff166002838154811061059757610596614417565b5b90600052602060002090600d0201600c0160009054906101000a900473ffffffffffffffffffffffffffffffffffffffff1673ffffffffffffffffffffffffffffffffffffffff16146105e957600080fd5b6000600283815481106105ff576105fe614417565b5b90600052602060002090600d02019050818160010190816106209190614652565b50505050565b3273ffffffffffffffffffffffffffffffffffffffff163373ffffffffffffffffffffffffffffffffffffffff161461065e57600080fd5b60006002838154811061067457610673614417565b5b90600052602060002090600d0201600b0160019054906101000a900473ffffffffffffffffffffffffffffffffffffffff1673ffffffffffffffffffffffffffffffffffffffff1663a0712d6834846040518363ffffffff1660e01b81526004016106df9190613a8a565b60006040518083038185885af11580156106fd573d6000803e3d6000fd5b50505050506040513d6000823e3d601f19601f820116820180604052508101906107279190614801565b905081600560003373ffffffffffffffffffffffffffffffffffffffff1673ffffffffffffffffffffffffffffffffffffffff168152602001908152602001600020600085815260200190815260200160002060008282546107899190614879565b925050819055506000600284815481106107a6576107a5614417565b5b90600052602060002090600d0201905060005b83811015610bde5760006040518061016001604052808781526020018584815181106107e8576107e7614417565b5b6020026020010151815260200184600101805461080490614475565b80601f016020809104026020016040519081016040528092919081815260200182805461083090614475565b801561087d5780601f106108525761010080835404028352916020019161087d565b820191906000526020600020905b81548152906001019060200180831161086057829003601f168201915b5050505050815260200184600201805461089690614475565b80601f01602080910402602001604051908101604052809291908181526020018280546108c290614475565b801561090f5780601f106108e45761010080835404028352916020019161090f565b820191906000526020600020905b8154815290600101906020018083116108f257829003601f168201915b5050505050815260200184600301805461092890614475565b80601f016020809104026020016040519081016040528092919081815260200182805461095490614475565b80156109a15780601f10610976576101008083540402835291602001916109a1565b820191906000526020600020905b81548152906001019060200180831161098457829003601f168201915b505050505081526020018460040180546109ba90614475565b80601f01602080910402602001604051908101604052809291908181526020018280546109e690614475565b8015610a335780601f10610a0857610100808354040283529160200191610a33565b820191906000526020600020905b815481529060010190602001808311610a1657829003601f168201915b50505050508152602001846005015481526020018460060154815260200184600701548152602001846008015481526020013373ffffffffffffffffffffffffffffffffffffffff168152509050600460003373ffffffffffffffffffffffffffffffffffffffff1673ffffffffffffffffffffffffffffffffffffffff1681526020019081526020016000208190806001815401808255809150506001900390600052602060002090600b020160009091909190915060008201518160000155602082015181600101556040820151816002019081610b139190614652565b506060820151816003019081610b299190614652565b506080820151816004019081610b3f9190614652565b5060a0820151816005019081610b559190614652565b5060c0820151816006015560e082015181600701556101008201518160080155610120820151816009015561014082015181600a0160006101000a81548173ffffffffffffffffffffffffffffffffffffffff021916908373ffffffffffffffffffffffffffffffffffffffff1602179055505050508080610bd6906148ad565b9150506107b9565b5050505050565b6005602052816000526040600020602052806000526040600020600091509150505481565b6000604051806101c0016040528060015481526020018d81526020018c81526020018b81526020018a81526020018981526020018881526020018781526020018681526020018581526020018481526020016000151581526020018373ffffffffffffffffffffffffffffffffffffffff1681526020013373ffffffffffffffffffffffffffffffffffffffff16815250905060028190806001815401808255809150506001900390600052602060002090600d0201600090919091909150600082015181600001556020820151816001019081610ce89190614652565b506040820151816002019081610cfe9190614652565b506060820151816003019081610d149190614652565b506080820151816004019081610d2a9190614652565b5060a0820151816005015560c0820151816006015560e082015181600701556101008201518160080155610120820151816009015561014082015181600a015561016082015181600b0160006101000a81548160ff02191690831515021790555061018082015181600b0160016101000a81548173ffffffffffffffffffffffffffffffffffffffff021916908373ffffffffffffffffffffffffffffffffffffffff1602179055506101a082015181600c0160006101000a81548173ffffffffffffffffffffffffffffffffffffffff021916908373ffffffffffffffffffffffffffffffffffffffff1602179055505050600360003373ffffffffffffffffffffffffffffffffffffffff1673ffffffffffffffffffffffffffffffffffffffff1681526020019081526020016000208190806001815401808255809150506001900390600052602060002090600d0201600090919091909150600082015181600001556020820151816001019081610ea59190614652565b506040820151816002019081610ebb9190614652565b506060820151816003019081610ed19190614652565b506080820151816004019081610ee79190614652565b5060a0820151816005015560c0820151816006015560e082015181600701556101008201518160080155610120820151816009015561014082015181600a015561016082015181600b0160006101000a81548160ff02191690831515021790555061018082015181600b0160016101000a81548173ffffffffffffffffffffffffffffffffffffffff021916908373ffffffffffffffffffffffffffffffffffffffff1602179055506101a082015181600c0160006101000a81548173ffffffffffffffffffffffffffffffffffffffff021916908373ffffffffffffffffffffffffffffffffffffffff160217905550505060016000815480929190610fed906148ad565b9190505550505050505050505050505050565b60606000600360008473ffffffffffffffffffffffffffffffffffffffff1673ffffffffffffffffffffffffffffffffffffffff1681526020019081526020016000208054905067ffffffffffffffff8111156110605761105f613816565b5b60405190808252806020026020018201604052801561109957816020015b6110866136a4565b81526020019060019003908161107e5790505b50905060005b600360008573ffffffffffffffffffffffffffffffffffffffff1673ffffffffffffffffffffffffffffffffffffffff168152602001908152602001600020805490508110156114e0576000600360008673ffffffffffffffffffffffffffffffffffffffff1673ffffffffffffffffffffffffffffffffffffffff168152602001908152602001600020828154811061113c5761113b614417565b5b90600052602060002090600d0201905080604051806101c00160405290816000820154815260200160018201805461117390614475565b80601f016020809104026020016040519081016040528092919081815260200182805461119f90614475565b80156111ec5780601f106111c1576101008083540402835291602001916111ec565b820191906000526020600020905b8154815290600101906020018083116111cf57829003601f168201915b5050505050815260200160028201805461120590614475565b80601f016020809104026020016040519081016040528092919081815260200182805461123190614475565b801561127e5780601f106112535761010080835404028352916020019161127e565b820191906000526020600020905b81548152906001019060200180831161126157829003601f168201915b5050505050815260200160038201805461129790614475565b80601f01602080910402602001604051908101604052809291908181526020018280546112c390614475565b80156113105780601f106112e557610100808354040283529160200191611310565b820191906000526020600020905b8154815290600101906020018083116112f357829003601f168201915b5050505050815260200160048201805461132990614475565b80601f016020809104026020016040519081016040528092919081815260200182805461135590614475565b80156113a25780601f10611377576101008083540402835291602001916113a2565b820191906000526020600020905b81548152906001019060200180831161138557829003601f168201915b505050505081526020016005820154815260200160068201548152602001600782015481526020016008820154815260200160098201548152602001600a8201548152602001600b820160009054906101000a900460ff16151515158152602001600b820160019054906101000a900473ffffffffffffffffffffffffffffffffffffffff1673ffffffffffffffffffffffffffffffffffffffff1673ffffffffffffffffffffffffffffffffffffffff168152602001600c820160009054906101000a900473ffffffffffffffffffffffffffffffffffffffff1673ffffffffffffffffffffffffffffffffffffffff1673ffffffffffffffffffffffffffffffffffffffff16815250508383815181106114c1576114c0614417565b5b60200260200101819052505080806114d8906148ad565b91505061109f565b5080915050919050565b60015481565b6114f8611ac4565b73ffffffffffffffffffffffffffffffffffffffff163373ffffffffffffffffffffffffffffffffffffffff161461152f57600080fd5b6000611539611ac4565b73ffffffffffffffffffffffffffffffffffffffff164760405161155c90614926565b60006040518083038185875af1925050503d8060008114611599576040519150601f19603f3d011682016040523d82523d6000602084013e61159e565b606091505b50509050806115ac57600080fd5b50565b600080600283815481106115c6576115c5614417565b5b90600052602060002090600d0201600b0160019054906101000a900473ffffffffffffffffffffffffffffffffffffffff1673ffffffffffffffffffffffffffffffffffffffff1663c4e41b226040518163ffffffff1660e01b8152600401602060405180830381865afa158015611642573d6000803e3d6000fd5b505050506040513d601f19601f82011682018060405250810190611666919061493b565b905080915050919050565b3373ffffffffffffffffffffffffffffffffffffffff166002838154811061169c5761169b614417565b5b90600052602060002090600d0201600c0160009054906101000a900473ffffffffffffffffffffffffffffffffffffffff1673ffffffffffffffffffffffffffffffffffffffff16146116ee57600080fd5b6002828154811061170257611701614417565b5b90600052602060002090600d0201600b0160019054906101000a900473ffffffffffffffffffffffffffffffffffffffff1673ffffffffffffffffffffffffffffffffffffffff1663d4460a08826040518263ffffffff1660e01b815260040161176c9190613a8a565b600060405180830381600087803b15801561178657600080fd5b505af115801561179a573d6000803e3d6000fd5b505050506000600283815481106117b4576117b3614417565b5b90600052602060002090600d020190508181600a0181905550505050565b3373ffffffffffffffffffffffffffffffffffffffff16600283815481106117fd576117fc614417565b5b90600052602060002090600d0201600c0160009054906101000a900473ffffffffffffffffffffffffffffffffffffffff1673ffffffffffffffffffffffffffffffffffffffff161461184f57600080fd5b6002828154811061186357611862614417565b5b90600052602060002090600d0201600b0160019054906101000a900473ffffffffffffffffffffffffffffffffffffffff1673ffffffffffffffffffffffffffffffffffffffff16637aaa7da5826040518263ffffffff1660e01b81526004016118cd9190614977565b600060405180830381600087803b1580156118e757600080fd5b505af11580156118fb573d6000803e3d6000fd5b5050505060006002838154811061191557611914614417565b5b90600052602060002090600d020190508181600b0160006101000a81548160ff021916908315150217905550505050565b3373ffffffffffffffffffffffffffffffffffffffff166002838154811061197157611970614417565b5b90600052602060002090600d0201600c0160009054906101000a900473ffffffffffffffffffffffffffffffffffffffff1673ffffffffffffffffffffffffffffffffffffffff16146119c357600080fd5b600282815481106119d7576119d6614417565b5b90600052602060002090600d0201600b0160019054906101000a900473ffffffffffffffffffffffffffffffffffffffff1673ffffffffffffffffffffffffffffffffffffffff166382103f03826040518263ffffffff1660e01b8152600401611a4191906149dc565b600060405180830381600087803b158015611a5b57600080fd5b505af1158015611a6f573d6000803e3d6000fd5b50505050600060028381548110611a8957611a88614417565b5b90600052602060002090600d0201905081816002019081611aaa9190614652565b50505050565b611ab861355a565b611ac260006135d8565b565b60008060009054906101000a900473ffffffffffffffffffffffffffffffffffffffff16905090565b611af56136a4565b60028281548110611b0957611b08614417565b5b90600052602060002090600d0201604051806101c001604052908160008201548152602001600182018054611b3d90614475565b80601f0160208091040260200160405190810160405280929190818152602001828054611b6990614475565b8015611bb65780601f10611b8b57610100808354040283529160200191611bb6565b820191906000526020600020905b815481529060010190602001808311611b9957829003601f168201915b50505050508152602001600282018054611bcf90614475565b80601f0160208091040260200160405190810160405280929190818152602001828054611bfb90614475565b8015611c485780601f10611c1d57610100808354040283529160200191611c48565b820191906000526020600020905b815481529060010190602001808311611c2b57829003601f168201915b50505050508152602001600382018054611c6190614475565b80601f0160208091040260200160405190810160405280929190818152602001828054611c8d90614475565b8015611cda5780601f10611caf57610100808354040283529160200191611cda565b820191906000526020600020905b815481529060010190602001808311611cbd57829003601f168201915b50505050508152602001600482018054611cf390614475565b80601f0160208091040260200160405190810160405280929190818152602001828054611d1f90614475565b8015611d6c5780601f10611d4157610100808354040283529160200191611d6c565b820191906000526020600020905b815481529060010190602001808311611d4f57829003601f168201915b505050505081526020016005820154815260200160068201548152602001600782015481526020016008820154815260200160098201548152602001600a8201548152602001600b820160009054906101000a900460ff16151515158152602001600b820160019054906101000a900473ffffffffffffffffffffffffffffffffffffffff1673ffffffffffffffffffffffffffffffffffffffff1673ffffffffffffffffffffffffffffffffffffffff168152602001600c820160009054906101000a900473ffffffffffffffffffffffffffffffffffffffff1673ffffffffffffffffffffffffffffffffffffffff1673ffffffffffffffffffffffffffffffffffffffff16815250509050919050565b60606000600460008473ffffffffffffffffffffffffffffffffffffffff1673ffffffffffffffffffffffffffffffffffffffff1681526020019081526020016000208054905067ffffffffffffffff811115611edf57611ede613816565b5b604051908082528060200260200182016040528015611f1857816020015b611f05613741565b815260200190600190039081611efd5790505b50905060005b600460008573ffffffffffffffffffffffffffffffffffffffff1673ffffffffffffffffffffffffffffffffffffffff168152602001908152602001600020805490508110156122e4576000600460008673ffffffffffffffffffffffffffffffffffffffff1673ffffffffffffffffffffffffffffffffffffffff1681526020019081526020016000208281548110611fbb57611fba614417565b5b90600052602060002090600b0201905080604051806101600160405290816000820154815260200160018201548152602001600282018054611ffc90614475565b80601f016020809104026020016040519081016040528092919081815260200182805461202890614475565b80156120755780601f1061204a57610100808354040283529160200191612075565b820191906000526020600020905b81548152906001019060200180831161205857829003601f168201915b5050505050815260200160038201805461208e90614475565b80601f01602080910402602001604051908101604052809291908181526020018280546120ba90614475565b80156121075780601f106120dc57610100808354040283529160200191612107565b820191906000526020600020905b8154815290600101906020018083116120ea57829003601f168201915b5050505050815260200160048201805461212090614475565b80601f016020809104026020016040519081016040528092919081815260200182805461214c90614475565b80156121995780601f1061216e57610100808354040283529160200191612199565b820191906000526020600020905b81548152906001019060200180831161217c57829003601f168201915b505050505081526020016005820180546121b290614475565b80601f01602080910402602001604051908101604052809291908181526020018280546121de90614475565b801561222b5780601f106122005761010080835404028352916020019161222b565b820191906000526020600020905b81548152906001019060200180831161220e57829003601f168201915b5050505050815260200160068201548152602001600782015481526020016008820154815260200160098201548152602001600a820160009054906101000a900473ffffffffffffffffffffffffffffffffffffffff1673ffffffffffffffffffffffffffffffffffffffff1673ffffffffffffffffffffffffffffffffffffffff16815250508383815181106122c5576122c4614417565b5b60200260200101819052505080806122dc906148ad565b915050611f1e565b5080915050919050565b6060600060015467ffffffffffffffff81111561230e5761230d613816565b5b60405190808252806020026020018201604052801561234757816020015b6123346136a4565b81526020019060019003908161232c5790505b50905060005b6001548110156127115760006002828154811061236d5761236c614417565b5b90600052602060002090600d0201905080604051806101c0016040529081600082015481526020016001820180546123a490614475565b80601f01602080910402602001604051908101604052809291908181526020018280546123d090614475565b801561241d5780601f106123f25761010080835404028352916020019161241d565b820191906000526020600020905b81548152906001019060200180831161240057829003601f168201915b5050505050815260200160028201805461243690614475565b80601f016020809104026020016040519081016040528092919081815260200182805461246290614475565b80156124af5780601f10612484576101008083540402835291602001916124af565b820191906000526020600020905b81548152906001019060200180831161249257829003601f168201915b505050505081526020016003820180546124c890614475565b80601f01602080910402602001604051908101604052809291908181526020018280546124f490614475565b80156125415780601f1061251657610100808354040283529160200191612541565b820191906000526020600020905b81548152906001019060200180831161252457829003601f168201915b5050505050815260200160048201805461255a90614475565b80601f016020809104026020016040519081016040528092919081815260200182805461258690614475565b80156125d35780601f106125a8576101008083540402835291602001916125d3565b820191906000526020600020905b8154815290600101906020018083116125b657829003601f168201915b505050505081526020016005820154815260200160068201548152602001600782015481526020016008820154815260200160098201548152602001600a8201548152602001600b820160009054906101000a900460ff16151515158152602001600b820160019054906101000a900473ffffffffffffffffffffffffffffffffffffffff1673ffffffffffffffffffffffffffffffffffffffff1673ffffffffffffffffffffffffffffffffffffffff168152602001600c820160009054906101000a900473ffffffffffffffffffffffffffffffffffffffff1673ffffffffffffffffffffffffffffffffffffffff1673ffffffffffffffffffffffffffffffffffffffff16815250508383815181106126f2576126f1614417565b5b6020026020010181905250508080612709906148ad565b91505061234d565b508091505090565b3373ffffffffffffffffffffffffffffffffffffffff166002838154811061274457612743614417565b5b90600052602060002090600d0201600c0160009054906101000a900473ffffffffffffffffffffffffffffffffffffffff1673ffffffffffffffffffffffffffffffffffffffff161461279657600080fd5b600282815481106127aa576127a9614417565b5b90600052602060002090600d0201600b0160019054906101000a900473ffffffffffffffffffffffffffffffffffffffff1673ffffffffffffffffffffffffffffffffffffffff16636f8b44b0826040518263ffffffff1660e01b81526004016128149190613a8a565b600060405180830381600087803b15801561282e57600080fd5b505af1158015612842573d6000803e3d6000fd5b5050505060006002838154811061285c5761285b614417565b5b90600052602060002090600d02019050818160090181905550505050565b3373ffffffffffffffffffffffffffffffffffffffff16600283815481106128a5576128a4614417565b5b90600052602060002090600d0201600c0160009054906101000a900473ffffffffffffffffffffffffffffffffffffffff1673ffffffffffffffffffffffffffffffffffffffff16146128f757600080fd5b6002828154811061290b5761290a614417565b5b90600052602060002090600d0201600b0160019054906101000a900473ffffffffffffffffffffffffffffffffffffffff1673ffffffffffffffffffffffffffffffffffffffff166391b7f5ed826040518263ffffffff1660e01b81526004016129759190613a8a565b600060405180830381600087803b15801561298f57600080fd5b505af11580156129a3573d6000803e3d6000fd5b505050506000600283815481106129bd576129bc614417565b5b90600052602060002090600d02019050818160080181905550505050565b3373ffffffffffffffffffffffffffffffffffffffff1660028481548110612a0657612a05614417565b5b90600052602060002090600d0201600c0160009054906101000a900473ffffffffffffffffffffffffffffffffffffffff1673ffffffffffffffffffffffffffffffffffffffff1614612a8e576040517f08c379a0000000000000000000000000000000000000000000000000000000008152600401612a8590614a4a565b60405180910390fd5b600060028481548110612aa457612aa3614417565b5b90600052602060002090600d0201905081816004019081612ac59190614652565b5060028481548110612ada57612ad9614417565b5b90600052602060002090600d0201600b0160019054906101000a900473ffffffffffffffffffffffffffffffffffffffff1673ffffffffffffffffffffffffffffffffffffffff1663a49a1e7d846040518263ffffffff1660e01b8152600401612b4491906149dc565b600060405180830381600087803b158015612b5e57600080fd5b505af1158015612b72573d6000803e3d6000fd5b5050505050505050565b3373ffffffffffffffffffffffffffffffffffffffff1660028381548110612ba757612ba6614417565b5b90600052602060002090600d0201600c0160009054906101000a900473ffffffffffffffffffffffffffffffffffffffff1673ffffffffffffffffffffffffffffffffffffffff1614612bf957600080fd5b600060028381548110612c0f57612c0e614417565b5b90600052602060002090600d0201600b0160019054906101000a900473ffffffffffffffffffffffffffffffffffffffff1673ffffffffffffffffffffffffffffffffffffffff1663f19e75d4836040518263ffffffff1660e01b8152600401612c799190613a8a565b6000604051808303816000875af1158015612c98573d6000803e3d6000fd5b505050506040513d6000823e3d601f19601f82011682018060405250810190612cc19190614801565b905081600560003373ffffffffffffffffffffffffffffffffffffffff1673ffffffffffffffffffffffffffffffffffffffff16815260200190815260200160002060008581526020019081526020016000206000828254612d239190614879565b92505081905550600060028481548110612d4057612d3f614417565b5b90600052602060002090600d0201905060005b83811015613178576000604051806101600160405280878152602001858481518110612d8257612d81614417565b5b60200260200101518152602001846001018054612d9e90614475565b80601f0160208091040260200160405190810160405280929190818152602001828054612dca90614475565b8015612e175780601f10612dec57610100808354040283529160200191612e17565b820191906000526020600020905b815481529060010190602001808311612dfa57829003601f168201915b50505050508152602001846002018054612e3090614475565b80601f0160208091040260200160405190810160405280929190818152602001828054612e5c90614475565b8015612ea95780601f10612e7e57610100808354040283529160200191612ea9565b820191906000526020600020905b815481529060010190602001808311612e8c57829003601f168201915b50505050508152602001846003018054612ec290614475565b80601f0160208091040260200160405190810160405280929190818152602001828054612eee90614475565b8015612f3b5780601f10612f1057610100808354040283529160200191612f3b565b820191906000526020600020905b815481529060010190602001808311612f1e57829003601f168201915b50505050508152602001846004018054612f5490614475565b80601f0160208091040260200160405190810160405280929190818152602001828054612f8090614475565b8015612fcd5780601f10612fa257610100808354040283529160200191612fcd565b820191906000526020600020905b815481529060010190602001808311612fb057829003601f168201915b50505050508152602001846005015481526020018460060154815260200184600701548152602001846008015481526020013373ffffffffffffffffffffffffffffffffffffffff168152509050600460003373ffffffffffffffffffffffffffffffffffffffff1673ffffffffffffffffffffffffffffffffffffffff1681526020019081526020016000208190806001815401808255809150506001900390600052602060002090600b0201600090919091909150600082015181600001556020820151816001015560408201518160020190816130ad9190614652565b5060608201518160030190816130c39190614652565b5060808201518160040190816130d99190614652565b5060a08201518160050190816130ef9190614652565b5060c0820151816006015560e082015181600701556101008201518160080155610120820151816009015561014082015181600a0160006101000a81548173ffffffffffffffffffffffffffffffffffffffff021916908373ffffffffffffffffffffffffffffffffffffffff1602179055505050508080613170906148ad565b915050612d53565b5050505050565b3373ffffffffffffffffffffffffffffffffffffffff16600283815481106131aa576131a9614417565b5b90600052602060002090600d0201600c0160009054906101000a900473ffffffffffffffffffffffffffffffffffffffff1673ffffffffffffffffffffffffffffffffffffffff16146131fc57600080fd5b60006002838154811061321257613211614417565b5b90600052602060002090600d02019050818160030190816132339190614652565b50505050565b3373ffffffffffffffffffffffffffffffffffffffff166002828154811061326457613263614417565b5b90600052602060002090600d0201600c0160009054906101000a900473ffffffffffffffffffffffffffffffffffffffff1673ffffffffffffffffffffffffffffffffffffffff16146132b657600080fd5b600281815481106132ca576132c9614417565b5b90600052602060002090600d0201600b0160019054906101000a900473ffffffffffffffffffffffffffffffffffffffff1673ffffffffffffffffffffffffffffffffffffffff166324600fc36040518163ffffffff1660e01b8152600401600060405180830381600087803b15801561334357600080fd5b505af1158015613357573d6000803e3d6000fd5b5050505050565b61336661355a565b600073ffffffffffffffffffffffffffffffffffffffff168173ffffffffffffffffffffffffffffffffffffffff16036133d5576040517f08c379a00000000000000000000000000000000000000000000000000000000081526004016133cc90614adc565b60405180910390fd5b6133de816135d8565b50565b3373ffffffffffffffffffffffffffffffffffffffff166002858154811061340c5761340b614417565b5b90600052602060002090600d0201600c0160009054906101000a900473ffffffffffffffffffffffffffffffffffffffff1673ffffffffffffffffffffffffffffffffffffffff161461345e57600080fd5b6002848154811061347257613471614417565b5b90600052602060002090600d0201600b0160019054906101000a900473ffffffffffffffffffffffffffffffffffffffff1673ffffffffffffffffffffffffffffffffffffffff166328760e608484846040518463ffffffff1660e01b81526004016134e093929190614afc565b600060405180830381600087803b1580156134fa57600080fd5b505af115801561350e573d6000803e3d6000fd5b5050505060006002858154811061352857613527614417565b5b90600052602060002090600d020190508381600501819055508281600601819055508181600701819055505050505050565b61356261369c565b73ffffffffffffffffffffffffffffffffffffffff16613580611ac4565b73ffffffffffffffffffffffffffffffffffffffff16146135d6576040517f08c379a00000000000000000000000000000000000000000000000000000000081526004016135cd90614b7f565b60405180910390fd5b565b60008060009054906101000a900473ffffffffffffffffffffffffffffffffffffffff169050816000806101000a81548173ffffffffffffffffffffffffffffffffffffffff021916908373ffffffffffffffffffffffffffffffffffffffff1602179055508173ffffffffffffffffffffffffffffffffffffffff168173ffffffffffffffffffffffffffffffffffffffff167f8be0079c531659141344cd1fd0a4f28419497f9722a3daafe3b4186f6b6457e060405160405180910390a35050565b600033905090565b604051806101c001604052806000815260200160608152602001606081526020016060815260200160608152602001600081526020016000815260200160008152602001600081526020016000815260200160008152602001600015158152602001600073ffffffffffffffffffffffffffffffffffffffff168152602001600073ffffffffffffffffffffffffffffffffffffffff1681525090565b60405180610160016040528060008152602001600081526020016060815260200160608152602001606081526020016060815260200160008152602001600081526020016000815260200160008152602001600073ffffffffffffffffffffffffffffffffffffffff1681525090565b6000604051905090565b600080fd5b600080fd5b6000819050919050565b6137d8816137c5565b81146137e357600080fd5b50565b6000813590506137f5816137cf565b92915050565b600080fd5b600080fd5b6000601f19601f8301169050919050565b7f4e487b7100000000000000000000000000000000000000000000000000000000600052604160045260246000fd5b61384e82613805565b810181811067ffffffffffffffff8211171561386d5761386c613816565b5b80604052505050565b60006138806137b1565b905061388c8282613845565b919050565b600067ffffffffffffffff8211156138ac576138ab613816565b5b6138b582613805565b9050602081019050919050565b82818337600083830152505050565b60006138e46138df84613891565b613876565b905082815260208101848484011115613900576138ff613800565b5b61390b8482856138c2565b509392505050565b600082601f830112613928576139276137fb565b5b81356139388482602086016138d1565b91505092915050565b60008060408385031215613958576139576137bb565b5b6000613966858286016137e6565b925050602083013567ffffffffffffffff811115613987576139866137c0565b5b61399385828601613913565b9150509250929050565b600080604083850312156139b4576139b36137bb565b5b60006139c2858286016137e6565b92505060206139d3858286016137e6565b9150509250929050565b600073ffffffffffffffffffffffffffffffffffffffff82169050919050565b6000613a08826139dd565b9050919050565b613a18816139fd565b8114613a2357600080fd5b50565b600081359050613a3581613a0f565b92915050565b60008060408385031215613a5257613a516137bb565b5b6000613a6085828601613a26565b9250506020613a71858286016137e6565b9150509250929050565b613a84816137c5565b82525050565b6000602082019050613a9f6000830184613a7b565b92915050565b60008060008060008060008060008060006101608c8e031215613acb57613aca6137bb565b5b60008c013567ffffffffffffffff811115613ae957613ae86137c0565b5b613af58e828f01613913565b9b505060208c013567ffffffffffffffff811115613b1657613b156137c0565b5b613b228e828f01613913565b9a505060408c013567ffffffffffffffff811115613b4357613b426137c0565b5b613b4f8e828f01613913565b99505060608c013567ffffffffffffffff811115613b7057613b6f6137c0565b5b613b7c8e828f01613913565b9850506080613b8d8e828f016137e6565b97505060a0613b9e8e828f016137e6565b96505060c0613baf8e828f016137e6565b95505060e0613bc08e828f016137e6565b945050610100613bd28e828f016137e6565b935050610120613be48e828f016137e6565b925050610140613bf68e828f01613a26565b9150509295989b509295989b9093969950565b600060208284031215613c1f57613c1e6137bb565b5b6000613c2d84828501613a26565b91505092915050565b600081519050919050565b600082825260208201905092915050565b6000819050602082019050919050565b613c6b816137c5565b82525050565b600081519050919050565b600082825260208201905092915050565b60005b83811015613cab578082015181840152602081019050613c90565b60008484015250505050565b6000613cc282613c71565b613ccc8185613c7c565b9350613cdc818560208601613c8d565b613ce581613805565b840191505092915050565b60008115159050919050565b613d0581613cf0565b82525050565b613d14816139fd565b82525050565b60006101c083016000830151613d336000860182613c62565b5060208301518482036020860152613d4b8282613cb7565b91505060408301518482036040860152613d658282613cb7565b91505060608301518482036060860152613d7f8282613cb7565b91505060808301518482036080860152613d998282613cb7565b91505060a0830151613dae60a0860182613c62565b5060c0830151613dc160c0860182613c62565b5060e0830151613dd460e0860182613c62565b50610100830151613de9610100860182613c62565b50610120830151613dfe610120860182613c62565b50610140830151613e13610140860182613c62565b50610160830151613e28610160860182613cfc565b50610180830151613e3d610180860182613d0b565b506101a0830151613e526101a0860182613d0b565b508091505092915050565b6000613e698383613d1a565b905092915050565b6000602082019050919050565b6000613e8982613c36565b613e938185613c41565b935083602082028501613ea585613c52565b8060005b85811015613ee15784840389528151613ec28582613e5d565b9450613ecd83613e71565b925060208a01995050600181019050613ea9565b50829750879550505050505092915050565b60006020820190508181036000830152613f0d8184613e7e565b905092915050565b600060208284031215613f2b57613f2a6137bb565b5b6000613f39848285016137e6565b91505092915050565b613f4b81613cf0565b8114613f5657600080fd5b50565b600081359050613f6881613f42565b92915050565b60008060408385031215613f8557613f846137bb565b5b6000613f93858286016137e6565b9250506020613fa485828601613f59565b9150509250929050565b613fb7816139fd565b82525050565b6000602082019050613fd26000830184613fae565b92915050565b60006101c083016000830151613ff16000860182613c62565b50602083015184820360208601526140098282613cb7565b915050604083015184820360408601526140238282613cb7565b9150506060830151848203606086015261403d8282613cb7565b915050608083015184820360808601526140578282613cb7565b91505060a083015161406c60a0860182613c62565b5060c083015161407f60c0860182613c62565b5060e083015161409260e0860182613c62565b506101008301516140a7610100860182613c62565b506101208301516140bc610120860182613c62565b506101408301516140d1610140860182613c62565b506101608301516140e6610160860182613cfc565b506101808301516140fb610180860182613d0b565b506101a08301516141106101a0860182613d0b565b508091505092915050565b600060208201905081810360008301526141358184613fd8565b905092915050565b600081519050919050565b600082825260208201905092915050565b6000819050602082019050919050565b6000610160830160008301516141826000860182613c62565b5060208301516141956020860182613c62565b50604083015184820360408601526141ad8282613cb7565b915050606083015184820360608601526141c78282613cb7565b915050608083015184820360808601526141e18282613cb7565b91505060a083015184820360a08601526141fb8282613cb7565b91505060c083015161421060c0860182613c62565b5060e083015161422360e0860182613c62565b50610100830151614238610100860182613c62565b5061012083015161424d610120860182613c62565b50610140830151614262610140860182613d0b565b508091505092915050565b60006142798383614169565b905092915050565b6000602082019050919050565b60006142998261413d565b6142a38185614148565b9350836020820285016142b585614159565b8060005b858110156142f157848403895281516142d2858261426d565b94506142dd83614281565b925060208a019950506001810190506142b9565b50829750879550505050505092915050565b6000602082019050818103600083015261431d818461428e565b905092915050565b60008060006060848603121561433e5761433d6137bb565b5b600061434c868287016137e6565b935050602084013567ffffffffffffffff81111561436d5761436c6137c0565b5b61437986828701613913565b925050604084013567ffffffffffffffff81111561439a576143996137c0565b5b6143a686828701613913565b9150509250925092565b600080600080608085870312156143ca576143c96137bb565b5b60006143d8878288016137e6565b94505060206143e9878288016137e6565b93505060406143fa878288016137e6565b925050606061440b878288016137e6565b91505092959194509250565b7f4e487b7100000000000000000000000000000000000000000000000000000000600052603260045260246000fd5b7f4e487b7100000000000000000000000000000000000000000000000000000000600052602260045260246000fd5b6000600282049050600182168061448d57607f821691505b6020821081036144a05761449f614446565b5b50919050565b60008190508160005260206000209050919050565b60006020601f8301049050919050565b600082821b905092915050565b6000600883026145087fffffffffffffffffffffffffffffffffffffffffffffffffffffffffffffffff826144cb565b61451286836144cb565b95508019841693508086168417925050509392505050565b6000819050919050565b600061454f61454a614545846137c5565b61452a565b6137c5565b9050919050565b6000819050919050565b61456983614534565b61457d61457582614556565b8484546144d8565b825550505050565b600090565b614592614585565b61459d818484614560565b505050565b5b818110156145c1576145b660008261458a565b6001810190506145a3565b5050565b601f821115614606576145d7816144a6565b6145e0846144bb565b810160208510156145ef578190505b6146036145fb856144bb565b8301826145a2565b50505b505050565b600082821c905092915050565b60006146296000198460080261460b565b1980831691505092915050565b60006146428383614618565b9150826002028217905092915050565b61465b82613c71565b67ffffffffffffffff81111561467457614673613816565b5b61467e8254614475565b6146898282856145c5565b600060209050601f8311600181146146bc57600084156146aa578287015190505b6146b48582614636565b86555061471c565b601f1984166146ca866144a6565b60005b828110156146f2578489015182556001820191506020850194506020810190506146cd565b8683101561470f578489015161470b601f891682614618565b8355505b6001600288020188555050505b505050505050565b600067ffffffffffffffff82111561473f5761473e613816565b5b602082029050602081019050919050565b600080fd5b600081519050614764816137cf565b92915050565b600061477d61477884614724565b613876565b905080838252602082019050602084028301858111156147a05761479f614750565b5b835b818110156147c957806147b58882614755565b8452602084019350506020810190506147a2565b5050509392505050565b600082601f8301126147e8576147e76137fb565b5b81516147f884826020860161476a565b91505092915050565b600060208284031215614817576148166137bb565b5b600082015167ffffffffffffffff811115614835576148346137c0565b5b614841848285016147d3565b91505092915050565b7f4e487b7100000000000000000000000000000000000000000000000000000000600052601160045260246000fd5b6000614884826137c5565b915061488f836137c5565b92508282019050808211156148a7576148a661484a565b5b92915050565b60006148b8826137c5565b91507fffffffffffffffffffffffffffffffffffffffffffffffffffffffffffffffff82036148ea576148e961484a565b5b600182019050919050565b600081905092915050565b50565b60006149106000836148f5565b915061491b82614900565b600082019050919050565b600061493182614903565b9150819050919050565b600060208284031215614951576149506137bb565b5b600061495f84828501614755565b91505092915050565b61497181613cf0565b82525050565b600060208201905061498c6000830184614968565b92915050565b600082825260208201905092915050565b60006149ae82613c71565b6149b88185614992565b93506149c8818560208601613c8d565b6149d181613805565b840191505092915050565b600060208201905081810360008301526149f681846149a3565b905092915050565b7f6f6e6c7920746865206f776e65722063616e206d616b65206368616e67657300600082015250565b6000614a34601f83614992565b9150614a3f826149fe565b602082019050919050565b60006020820190508181036000830152614a6381614a27565b9050919050565b7f4f776e61626c653a206e6577206f776e657220697320746865207a65726f206160008201527f6464726573730000000000000000000000000000000000000000000000000000602082015250565b6000614ac6602683614992565b9150614ad182614a6a565b604082019050919050565b60006020820190508181036000830152614af581614ab9565b9050919050565b6000606082019050614b116000830186613a7b565b614b1e6020830185613a7b565b614b2b6040830184613a7b565b949350505050565b7f4f776e61626c653a2063616c6c6572206973206e6f7420746865206f776e6572600082015250565b6000614b69602083614992565b9150614b7482614b33565b602082019050919050565b60006020820190508181036000830152614b9881614b5c565b905091905056fea264697066735822122029a3980fe13396e1a5c574ab96a496063530176234e0459afbbed1f5da8f2e4f64736f6c63430008110033",
  "linkReferences": {},
  "deployedLinkReferences": {}
}