{
  "_format": "hh-sol-artifact-1",
  "contractName": "smartTix",
  "sourceName": "contracts/SmartTix.sol",
  "abi": [
    {
      "anonymous": false,
      "inputs": [
        {
          "indexed": true,
          "internalType": "address",
          "name": "previousOwner",
          "type": "address"
        },
        {
          "indexed": true,
          "internalType": "address",
          "name": "newOwner",
          "type": "address"
        }
      ],
      "name": "OwnershipTransferred",
      "type": "event"
    },
    {
      "inputs": [
        {
          "internalType": "uint256",
          "name": "_id",
          "type": "uint256"
        },
        {
          "internalType": "uint256",
          "name": "_amount",
          "type": "uint256"
        }
      ],
      "name": "buyTicket",
      "outputs": [],
      "stateMutability": "payable",
      "type": "function"
    },
    {
      "inputs": [
        {
          "internalType": "uint256",
          "name": "_id",
          "type": "uint256"
        },
        {
          "internalType": "uint256",
          "name": "_newAllocation",
          "type": "uint256"
        }
      ],
      "name": "changeAllocationPerUser",
      "outputs": [],
      "stateMutability": "nonpayable",
      "type": "function"
    },
    {
      "inputs": [
        {
          "internalType": "uint256",
          "name": "_id",
          "type": "uint256"
        },
        {
          "internalType": "uint256",
          "name": "_year",
          "type": "uint256"
        },
        {
          "internalType": "uint256",
          "name": "_month",
          "type": "uint256"
        },
        {
          "internalType": "uint256",
          "name": "_day",
          "type": "uint256"
        }
      ],
      "name": "changeDate",
      "outputs": [],
      "stateMutability": "nonpayable",
      "type": "function"
    },
    {
      "inputs": [
        {
          "internalType": "uint256",
          "name": "_id",
          "type": "uint256"
        },
        {
          "internalType": "string",
          "name": "_newDescription",
          "type": "string"
        }
      ],
      "name": "changeDescription",
      "outputs": [],
      "stateMutability": "nonpayable",
      "type": "function"
    },
    {
      "inputs": [
        {
          "internalType": "uint256",
          "name": "_id",
          "type": "uint256"
        },
        {
          "internalType": "string",
          "name": "_newMetadata",
          "type": "string"
        },
        {
          "internalType": "string",
          "name": "_newImageUrl",
          "type": "string"
        }
      ],
      "name": "changeMetadata",
      "outputs": [],
      "stateMutability": "nonpayable",
      "type": "function"
    },
    {
      "inputs": [
        {
          "internalType": "uint256",
          "name": "_id",
          "type": "uint256"
        },
        {
          "internalType": "uint256",
          "name": "_newPrice",
          "type": "uint256"
        }
      ],
      "name": "changePrice",
      "outputs": [],
      "stateMutability": "nonpayable",
      "type": "function"
    },
    {
      "inputs": [
        {
          "internalType": "uint256",
          "name": "_id",
          "type": "uint256"
        },
        {
          "internalType": "bool",
          "name": "_phase",
          "type": "bool"
        }
      ],
      "name": "changeSalePhase",
      "outputs": [],
      "stateMutability": "nonpayable",
      "type": "function"
    },
    {
      "inputs": [
        {
          "internalType": "uint256",
          "name": "_id",
          "type": "uint256"
        },
        {
          "internalType": "uint256",
          "name": "_newSupply",
          "type": "uint256"
        }
      ],
      "name": "changeSupply",
      "outputs": [],
      "stateMutability": "nonpayable",
      "type": "function"
    },
    {
      "inputs": [
        {
          "internalType": "uint256",
          "name": "_id",
          "type": "uint256"
        },
        {
          "internalType": "string",
          "name": "_newVenue",
          "type": "string"
        }
      ],
      "name": "changeVenue",
      "outputs": [],
      "stateMutability": "nonpayable",
      "type": "function"
    },
    {
      "inputs": [
        {
          "internalType": "string",
          "name": "_showName",
          "type": "string"
        },
        {
          "internalType": "string",
          "name": "_venue",
          "type": "string"
        },
        {
          "internalType": "string",
          "name": "_description",
          "type": "string"
        },
        {
          "internalType": "string",
          "name": "_imageUrl",
          "type": "string"
        },
        {
          "internalType": "uint256",
          "name": "_year",
          "type": "uint256"
        },
        {
          "internalType": "uint256",
          "name": "_month",
          "type": "uint256"
        },
        {
          "internalType": "uint256",
          "name": "_day",
          "type": "uint256"
        },
        {
          "internalType": "uint256",
          "name": "_price",
          "type": "uint256"
        },
        {
          "internalType": "uint256",
          "name": "_numberOfTickets",
          "type": "uint256"
        },
        {
          "internalType": "uint256",
          "name": "_purchaseLimit",
          "type": "uint256"
        },
        {
          "internalType": "address",
          "name": "_eventAddress",
          "type": "address"
        }
      ],
      "name": "createEvent",
      "outputs": [],
      "stateMutability": "nonpayable",
      "type": "function"
    },
    {
      "inputs": [
        {
          "internalType": "uint256",
          "name": "id",
          "type": "uint256"
        }
      ],
      "name": "getEventTotalSupply",
      "outputs": [
        {
          "internalType": "uint256",
          "name": "",
          "type": "uint256"
        }
      ],
      "stateMutability": "view",
      "type": "function"
    },
    {
      "inputs": [],
      "name": "numberOfEvents",
      "outputs": [
        {
          "internalType": "uint256",
          "name": "",
          "type": "uint256"
        }
      ],
      "stateMutability": "view",
      "type": "function"
    },
    {
      "inputs": [],
      "name": "owner",
      "outputs": [
        {
          "internalType": "address",
          "name": "",
          "type": "address"
        }
      ],
      "stateMutability": "view",
      "type": "function"
    },
    {
      "inputs": [
        {
          "internalType": "uint256",
          "name": "_id",
          "type": "uint256"
        },
        {
          "internalType": "uint256",
          "name": "_amount",
          "type": "uint256"
        }
      ],
      "name": "ownerMint",
      "outputs": [],
      "stateMutability": "nonpayable",
      "type": "function"
    },
    {
      "inputs": [],
      "name": "renounceOwnership",
      "outputs": [],
      "stateMutability": "nonpayable",
      "type": "function"
    },
    {
      "inputs": [],
      "name": "showAllEvents",
      "outputs": [
        {
          "components": [
            {
              "internalType": "uint256",
              "name": "id",
              "type": "uint256"
            },
            {
              "internalType": "string",
              "name": "showName",
              "type": "string"
            },
            {
              "internalType": "string",
              "name": "venue",
              "type": "string"
            },
            {
              "internalType": "string",
              "name": "description",
              "type": "string"
            },
            {
              "internalType": "string",
              "name": "imageUrl",
              "type": "string"
            },
            {
              "internalType": "uint256",
              "name": "year",
              "type": "uint256"
            },
            {
              "internalType": "uint256",
              "name": "month",
              "type": "uint256"
            },
            {
              "internalType": "uint256",
              "name": "day",
              "type": "uint256"
            },
            {
              "internalType": "uint256",
              "name": "price",
              "type": "uint256"
            },
            {
              "internalType": "uint256",
              "name": "numberOfTickets",
              "type": "uint256"
            },
            {
              "internalType": "uint256",
              "name": "purchaseLimit",
              "type": "uint256"
            },
            {
              "internalType": "bool",
              "name": "isSaleEnabled",
              "type": "bool"
            },
            {
              "internalType": "address",
              "name": "eventAddress",
              "type": "address"
            },
            {
              "internalType": "address",
              "name": "owner",
              "type": "address"
            }
          ],
          "internalType": "struct smartTix.eventData[]",
          "name": "",
          "type": "tuple[]"
        }
      ],
      "stateMutability": "view",
      "type": "function"
    },
    {
      "inputs": [
        {
          "internalType": "uint256",
          "name": "_id",
          "type": "uint256"
        }
      ],
      "name": "showEventData",
      "outputs": [
        {
          "components": [
            {
              "internalType": "uint256",
              "name": "id",
              "type": "uint256"
            },
            {
              "internalType": "string",
              "name": "showName",
              "type": "string"
            },
            {
              "internalType": "string",
              "name": "venue",
              "type": "string"
            },
            {
              "internalType": "string",
              "name": "description",
              "type": "string"
            },
            {
              "internalType": "string",
              "name": "imageUrl",
              "type": "string"
            },
            {
              "internalType": "uint256",
              "name": "year",
              "type": "uint256"
            },
            {
              "internalType": "uint256",
              "name": "month",
              "type": "uint256"
            },
            {
              "internalType": "uint256",
              "name": "day",
              "type": "uint256"
            },
            {
              "internalType": "uint256",
              "name": "price",
              "type": "uint256"
            },
            {
              "internalType": "uint256",
              "name": "numberOfTickets",
              "type": "uint256"
            },
            {
              "internalType": "uint256",
              "name": "purchaseLimit",
              "type": "uint256"
            },
            {
              "internalType": "bool",
              "name": "isSaleEnabled",
              "type": "bool"
            },
            {
              "internalType": "address",
              "name": "eventAddress",
              "type": "address"
            },
            {
              "internalType": "address",
              "name": "owner",
              "type": "address"
            }
          ],
          "internalType": "struct smartTix.eventData",
          "name": "",
          "type": "tuple"
        }
      ],
      "stateMutability": "view",
      "type": "function"
    },
    {
      "inputs": [
        {
          "internalType": "address",
          "name": "_deployer",
          "type": "address"
        }
      ],
      "name": "showEventsPerDeployer",
      "outputs": [
        {
          "components": [
            {
              "internalType": "uint256",
              "name": "id",
              "type": "uint256"
            },
            {
              "internalType": "string",
              "name": "showName",
              "type": "string"
            },
            {
              "internalType": "string",
              "name": "venue",
              "type": "string"
            },
            {
              "internalType": "string",
              "name": "description",
              "type": "string"
            },
            {
              "internalType": "string",
              "name": "imageUrl",
              "type": "string"
            },
            {
              "internalType": "uint256",
              "name": "year",
              "type": "uint256"
            },
            {
              "internalType": "uint256",
              "name": "month",
              "type": "uint256"
            },
            {
              "internalType": "uint256",
              "name": "day",
              "type": "uint256"
            },
            {
              "internalType": "uint256",
              "name": "price",
              "type": "uint256"
            },
            {
              "internalType": "uint256",
              "name": "numberOfTickets",
              "type": "uint256"
            },
            {
              "internalType": "uint256",
              "name": "purchaseLimit",
              "type": "uint256"
            },
            {
              "internalType": "bool",
              "name": "isSaleEnabled",
              "type": "bool"
            },
            {
              "internalType": "address",
              "name": "eventAddress",
              "type": "address"
            },
            {
              "internalType": "address",
              "name": "owner",
              "type": "address"
            }
          ],
          "internalType": "struct smartTix.eventData[]",
          "name": "",
          "type": "tuple[]"
        }
      ],
      "stateMutability": "view",
      "type": "function"
    },
    {
      "inputs": [
        {
          "internalType": "address",
          "name": "_user",
          "type": "address"
        }
      ],
      "name": "showUserTickets",
      "outputs": [
        {
          "components": [
            {
              "internalType": "uint256",
              "name": "eventId",
              "type": "uint256"
            },
            {
              "internalType": "uint256",
              "name": "ticketId",
              "type": "uint256"
            },
            {
              "internalType": "string",
              "name": "showName",
              "type": "string"
            },
            {
              "internalType": "string",
              "name": "venue",
              "type": "string"
            },
            {
              "internalType": "string",
              "name": "description",
              "type": "string"
            },
            {
              "internalType": "string",
              "name": "imageUrl",
              "type": "string"
            },
            {
              "internalType": "uint256",
              "name": "year",
              "type": "uint256"
            },
            {
              "internalType": "uint256",
              "name": "month",
              "type": "uint256"
            },
            {
              "internalType": "uint256",
              "name": "day",
              "type": "uint256"
            },
            {
              "internalType": "uint256",
              "name": "price",
              "type": "uint256"
            }
          ],
          "internalType": "struct smartTix.ticketData[]",
          "name": "",
          "type": "tuple[]"
        }
      ],
      "stateMutability": "view",
      "type": "function"
    },
    {
      "inputs": [
        {
          "internalType": "address",
          "name": "newOwner",
          "type": "address"
        }
      ],
      "name": "transferOwnership",
      "outputs": [],
      "stateMutability": "nonpayable",
      "type": "function"
    },
    {
      "inputs": [
        {
          "internalType": "address",
          "name": "",
          "type": "address"
        },
        {
          "internalType": "uint256",
          "name": "",
          "type": "uint256"
        }
      ],
      "name": "userEventTicketCount",
      "outputs": [
        {
          "internalType": "uint256",
          "name": "",
          "type": "uint256"
        }
      ],
      "stateMutability": "view",
      "type": "function"
    },
    {
      "inputs": [
        {
          "internalType": "uint256",
          "name": "_id",
          "type": "uint256"
        }
      ],
      "name": "withdrawFunds",
      "outputs": [],
      "stateMutability": "nonpayable",
      "type": "function"
    }
  ],
  "bytecode": "0x60806040523480156200001157600080fd5b5062000032620000266200003860201b60201c565b6200004060201b60201c565b62000104565b600033905090565b60008060009054906101000a900473ffffffffffffffffffffffffffffffffffffffff169050816000806101000a81548173ffffffffffffffffffffffffffffffffffffffff021916908373ffffffffffffffffffffffffffffffffffffffff1602179055508173ffffffffffffffffffffffffffffffffffffffff168173ffffffffffffffffffffffffffffffffffffffff167f8be0079c531659141344cd1fd0a4f28419497f9722a3daafe3b4186f6b6457e060405160405180910390a35050565b6146f680620001146000396000f3fe6080604052600436106101355760003560e01c80638da5cb5b116100ab578063b3de019c1161006f578063b3de019c14610415578063d43cb3ab1461043e578063d47573d414610467578063de6a06ed14610490578063f2fde38b146104b9578063f8372ae2146104e257610135565b80638da5cb5b1461031c5780639df0eb1914610347578063a332203814610384578063a3bc9918146103c1578063a6a53fe9146103ec57610135565b80634a50c4a2116100fd5780634a50c4a21461022257806352268eda1461024d57806360b4f1841461028a57806361b029b5146102b35780637099c2a5146102dc578063715018a61461030557610135565b8063155dd5ee1461013a578063298ec208146101635780632ff67dcc1461017f57806333961cce146101bc5780634423cfad146101e5575b600080fd5b34801561014657600080fd5b50610161600480360381019061015c9190613377565b61050b565b005b61017d600480360381019061017891906133a4565b610630565b005b34801561018b57600080fd5b506101a660048036038101906101a19190613442565b610b8b565b6040516101b39190613491565b60405180910390f35b3480156101c857600080fd5b506101e360048036038101906101de91906135f2565b610bb0565b005b3480156101f157600080fd5b5061020c60048036038101906102079190613756565b610e3e565b6040516102199190613a40565b60405180910390f35b34801561022e57600080fd5b50610237611321565b6040516102449190613491565b60405180910390f35b34801561025957600080fd5b50610274600480360381019061026f9190613377565b611327565b6040516102819190613491565b60405180910390f35b34801561029657600080fd5b506102b160048036038101906102ac91906133a4565b6113e9565b005b3480156102bf57600080fd5b506102da60048036038101906102d59190613a8e565b61154a565b005b3480156102e857600080fd5b5061030360048036038101906102fe9190613ace565b6116be565b005b34801561031157600080fd5b5061031a611828565b005b34801561032857600080fd5b5061033161183c565b60405161033e9190613b39565b60405180910390f35b34801561035357600080fd5b5061036e60048036038101906103699190613377565b611865565b60405161037b9190613c97565b60405180910390f35b34801561039057600080fd5b506103ab60048036038101906103a69190613756565b611bf7565b6040516103b89190613e6a565b60405180910390f35b3480156103cd57600080fd5b506103d6612010565b6040516103e39190613a40565b60405180910390f35b3480156103f857600080fd5b50610413600480360381019061040e91906133a4565b61243b565b005b34801561042157600080fd5b5061043c600480360381019061043791906133a4565b61259c565b005b34801561044a57600080fd5b5061046560048036038101906104609190613e8c565b6126fd565b005b34801561047357600080fd5b5061048e600480360381019061048991906133a4565b61289e565b005b34801561049c57600080fd5b506104b760048036038101906104b29190613ace565b612e3d565b005b3480156104c557600080fd5b506104e060048036038101906104db9190613756565b612ef7565b005b3480156104ee57600080fd5b5061050960048036038101906105049190613f17565b612f7a565b005b3373ffffffffffffffffffffffffffffffffffffffff166002828154811061053657610535613f7e565b5b90600052602060002090600d0201600c0160009054906101000a900473ffffffffffffffffffffffffffffffffffffffff1673ffffffffffffffffffffffffffffffffffffffff161461058857600080fd5b6002818154811061059c5761059b613f7e565b5b90600052602060002090600d0201600b0160019054906101000a900473ffffffffffffffffffffffffffffffffffffffff1673ffffffffffffffffffffffffffffffffffffffff166324600fc36040518163ffffffff1660e01b8152600401600060405180830381600087803b15801561061557600080fd5b505af1158015610629573d6000803e3d6000fd5b5050505050565b3273ffffffffffffffffffffffffffffffffffffffff163373ffffffffffffffffffffffffffffffffffffffff161461066857600080fd5b60006002838154811061067e5761067d613f7e565b5b90600052602060002090600d0201600b0160019054906101000a900473ffffffffffffffffffffffffffffffffffffffff1673ffffffffffffffffffffffffffffffffffffffff1663a0712d6834846040518363ffffffff1660e01b81526004016106e99190613491565b60006040518083038185885af1158015610707573d6000803e3d6000fd5b50505050506040513d6000823e3d601f19601f82011682018060405250810190610731919061408a565b905081600560003373ffffffffffffffffffffffffffffffffffffffff1673ffffffffffffffffffffffffffffffffffffffff168152602001908152602001600020600085815260200190815260200160002060008282546107939190614102565b925050819055506000600284815481106107b0576107af613f7e565b5b90600052602060002090600d0201905060005b83811015610b845760006040518061014001604052808781526020018584815181106107f2576107f1613f7e565b5b6020026020010151815260200184600101805461080e90614165565b80601f016020809104026020016040519081016040528092919081815260200182805461083a90614165565b80156108875780601f1061085c57610100808354040283529160200191610887565b820191906000526020600020905b81548152906001019060200180831161086a57829003601f168201915b505050505081526020018460020180546108a090614165565b80601f01602080910402602001604051908101604052809291908181526020018280546108cc90614165565b80156109195780601f106108ee57610100808354040283529160200191610919565b820191906000526020600020905b8154815290600101906020018083116108fc57829003601f168201915b5050505050815260200184600301805461093290614165565b80601f016020809104026020016040519081016040528092919081815260200182805461095e90614165565b80156109ab5780601f10610980576101008083540402835291602001916109ab565b820191906000526020600020905b81548152906001019060200180831161098e57829003601f168201915b505050505081526020018460040180546109c490614165565b80601f01602080910402602001604051908101604052809291908181526020018280546109f090614165565b8015610a3d5780601f10610a1257610100808354040283529160200191610a3d565b820191906000526020600020905b815481529060010190602001808311610a2057829003601f168201915b5050505050815260200184600501548152602001846006015481526020018460070154815260200184600801548152509050600460003373ffffffffffffffffffffffffffffffffffffffff1673ffffffffffffffffffffffffffffffffffffffff1681526020019081526020016000208190806001815401808255809150506001900390600052602060002090600a020160009091909190915060008201518160000155602082015181600101556040820151816002019081610b019190614342565b506060820151816003019081610b179190614342565b506080820151816004019081610b2d9190614342565b5060a0820151816005019081610b439190614342565b5060c0820151816006015560e08201518160070155610100820151816008015561012082015181600901555050508080610b7c90614414565b9150506107c3565b5050505050565b6005602052816000526040600020602052806000526040600020600091509150505481565b6000604051806101c0016040528060015481526020018d81526020018c81526020018b81526020018a81526020018981526020018881526020018781526020018681526020018581526020018481526020016000151581526020018373ffffffffffffffffffffffffffffffffffffffff1681526020013373ffffffffffffffffffffffffffffffffffffffff16815250905060028190806001815401808255809150506001900390600052602060002090600d0201600090919091909150600082015181600001556020820151816001019081610c8e9190614342565b506040820151816002019081610ca49190614342565b506060820151816003019081610cba9190614342565b506080820151816004019081610cd09190614342565b5060a0820151816005015560c0820151816006015560e082015181600701556101008201518160080155610120820151816009015561014082015181600a015561016082015181600b0160006101000a81548160ff02191690831515021790555061018082015181600b0160016101000a81548173ffffffffffffffffffffffffffffffffffffffff021916908373ffffffffffffffffffffffffffffffffffffffff1602179055506101a082015181600c0160006101000a81548173ffffffffffffffffffffffffffffffffffffffff021916908373ffffffffffffffffffffffffffffffffffffffff1602179055505050600360003373ffffffffffffffffffffffffffffffffffffffff1673ffffffffffffffffffffffffffffffffffffffff1681526020019081526020016000206000815480929190610e1390614414565b919050555060016000815480929190610e2b90614414565b9190505550505050505050505050505050565b60606000600360008473ffffffffffffffffffffffffffffffffffffffff1673ffffffffffffffffffffffffffffffffffffffff1681526020019081526020016000205467ffffffffffffffff811115610e9b57610e9a6134c7565b5b604051908082528060200260200182016040528015610ed457816020015b610ec161323d565b815260200190600190039081610eb95790505b50905060005b600154811015611317578373ffffffffffffffffffffffffffffffffffffffff1660028281548110610f0f57610f0e613f7e565b5b90600052602060002090600d0201600c0160009054906101000a900473ffffffffffffffffffffffffffffffffffffffff1673ffffffffffffffffffffffffffffffffffffffff160361130457600060028281548110610f7257610f71613f7e565b5b90600052602060002090600d0201905080604051806101c001604052908160008201548152602001600182018054610fa990614165565b80601f0160208091040260200160405190810160405280929190818152602001828054610fd590614165565b80156110225780601f10610ff757610100808354040283529160200191611022565b820191906000526020600020905b81548152906001019060200180831161100557829003601f168201915b5050505050815260200160028201805461103b90614165565b80601f016020809104026020016040519081016040528092919081815260200182805461106790614165565b80156110b45780601f10611089576101008083540402835291602001916110b4565b820191906000526020600020905b81548152906001019060200180831161109757829003601f168201915b505050505081526020016003820180546110cd90614165565b80601f01602080910402602001604051908101604052809291908181526020018280546110f990614165565b80156111465780601f1061111b57610100808354040283529160200191611146565b820191906000526020600020905b81548152906001019060200180831161112957829003601f168201915b5050505050815260200160048201805461115f90614165565b80601f016020809104026020016040519081016040528092919081815260200182805461118b90614165565b80156111d85780601f106111ad576101008083540402835291602001916111d8565b820191906000526020600020905b8154815290600101906020018083116111bb57829003601f168201915b505050505081526020016005820154815260200160068201548152602001600782015481526020016008820154815260200160098201548152602001600a8201548152602001600b820160009054906101000a900460ff16151515158152602001600b820160019054906101000a900473ffffffffffffffffffffffffffffffffffffffff1673ffffffffffffffffffffffffffffffffffffffff1673ffffffffffffffffffffffffffffffffffffffff168152602001600c820160009054906101000a900473ffffffffffffffffffffffffffffffffffffffff1673ffffffffffffffffffffffffffffffffffffffff1673ffffffffffffffffffffffffffffffffffffffff16815250508383815181106112f7576112f6613f7e565b5b6020026020010181905250505b808061130f90614414565b915050610eda565b5080915050919050565b60015481565b6000806002838154811061133e5761133d613f7e565b5b90600052602060002090600d0201600b0160019054906101000a900473ffffffffffffffffffffffffffffffffffffffff1673ffffffffffffffffffffffffffffffffffffffff1663c4e41b226040518163ffffffff1660e01b8152600401602060405180830381865afa1580156113ba573d6000803e3d6000fd5b505050506040513d601f19601f820116820180604052508101906113de919061445c565b905080915050919050565b3373ffffffffffffffffffffffffffffffffffffffff166002838154811061141457611413613f7e565b5b90600052602060002090600d0201600c0160009054906101000a900473ffffffffffffffffffffffffffffffffffffffff1673ffffffffffffffffffffffffffffffffffffffff161461146657600080fd5b6002828154811061147a57611479613f7e565b5b90600052602060002090600d0201600b0160019054906101000a900473ffffffffffffffffffffffffffffffffffffffff1673ffffffffffffffffffffffffffffffffffffffff1663d4460a08826040518263ffffffff1660e01b81526004016114e49190613491565b600060405180830381600087803b1580156114fe57600080fd5b505af1158015611512573d6000803e3d6000fd5b5050505060006002838154811061152c5761152b613f7e565b5b90600052602060002090600d020190508181600a0181905550505050565b3373ffffffffffffffffffffffffffffffffffffffff166002838154811061157557611574613f7e565b5b90600052602060002090600d0201600c0160009054906101000a900473ffffffffffffffffffffffffffffffffffffffff1673ffffffffffffffffffffffffffffffffffffffff16146115c757600080fd5b600282815481106115db576115da613f7e565b5b90600052602060002090600d0201600b0160019054906101000a900473ffffffffffffffffffffffffffffffffffffffff1673ffffffffffffffffffffffffffffffffffffffff16637aaa7da5826040518263ffffffff1660e01b81526004016116459190614498565b600060405180830381600087803b15801561165f57600080fd5b505af1158015611673573d6000803e3d6000fd5b5050505060006002838154811061168d5761168c613f7e565b5b90600052602060002090600d020190508181600b0160006101000a81548160ff021916908315150217905550505050565b3373ffffffffffffffffffffffffffffffffffffffff16600283815481106116e9576116e8613f7e565b5b90600052602060002090600d0201600c0160009054906101000a900473ffffffffffffffffffffffffffffffffffffffff1673ffffffffffffffffffffffffffffffffffffffff161461173b57600080fd5b6002828154811061174f5761174e613f7e565b5b90600052602060002090600d0201600b0160019054906101000a900473ffffffffffffffffffffffffffffffffffffffff1673ffffffffffffffffffffffffffffffffffffffff166382103f03826040518263ffffffff1660e01b81526004016117b991906144fd565b600060405180830381600087803b1580156117d357600080fd5b505af11580156117e7573d6000803e3d6000fd5b5050505060006002838154811061180157611800613f7e565b5b90600052602060002090600d02019050818160020190816118229190614342565b50505050565b6118306130f3565b61183a6000613171565b565b60008060009054906101000a900473ffffffffffffffffffffffffffffffffffffffff16905090565b61186d61323d565b6002828154811061188157611880613f7e565b5b90600052602060002090600d0201604051806101c0016040529081600082015481526020016001820180546118b590614165565b80601f01602080910402602001604051908101604052809291908181526020018280546118e190614165565b801561192e5780601f106119035761010080835404028352916020019161192e565b820191906000526020600020905b81548152906001019060200180831161191157829003601f168201915b5050505050815260200160028201805461194790614165565b80601f016020809104026020016040519081016040528092919081815260200182805461197390614165565b80156119c05780601f10611995576101008083540402835291602001916119c0565b820191906000526020600020905b8154815290600101906020018083116119a357829003601f168201915b505050505081526020016003820180546119d990614165565b80601f0160208091040260200160405190810160405280929190818152602001828054611a0590614165565b8015611a525780601f10611a2757610100808354040283529160200191611a52565b820191906000526020600020905b815481529060010190602001808311611a3557829003601f168201915b50505050508152602001600482018054611a6b90614165565b80601f0160208091040260200160405190810160405280929190818152602001828054611a9790614165565b8015611ae45780601f10611ab957610100808354040283529160200191611ae4565b820191906000526020600020905b815481529060010190602001808311611ac757829003601f168201915b505050505081526020016005820154815260200160068201548152602001600782015481526020016008820154815260200160098201548152602001600a8201548152602001600b820160009054906101000a900460ff16151515158152602001600b820160019054906101000a900473ffffffffffffffffffffffffffffffffffffffff1673ffffffffffffffffffffffffffffffffffffffff1673ffffffffffffffffffffffffffffffffffffffff168152602001600c820160009054906101000a900473ffffffffffffffffffffffffffffffffffffffff1673ffffffffffffffffffffffffffffffffffffffff1673ffffffffffffffffffffffffffffffffffffffff16815250509050919050565b60606000600460008473ffffffffffffffffffffffffffffffffffffffff1673ffffffffffffffffffffffffffffffffffffffff1681526020019081526020016000208054905067ffffffffffffffff811115611c5757611c566134c7565b5b604051908082528060200260200182016040528015611c9057816020015b611c7d6132da565b815260200190600190039081611c755790505b50905060005b600460008573ffffffffffffffffffffffffffffffffffffffff1673ffffffffffffffffffffffffffffffffffffffff16815260200190815260200160002080549050811015612006576000600460008673ffffffffffffffffffffffffffffffffffffffff1673ffffffffffffffffffffffffffffffffffffffff1681526020019081526020016000208281548110611d3357611d32613f7e565b5b90600052602060002090600a0201905080604051806101400160405290816000820154815260200160018201548152602001600282018054611d7490614165565b80601f0160208091040260200160405190810160405280929190818152602001828054611da090614165565b8015611ded5780601f10611dc257610100808354040283529160200191611ded565b820191906000526020600020905b815481529060010190602001808311611dd057829003601f168201915b50505050508152602001600382018054611e0690614165565b80601f0160208091040260200160405190810160405280929190818152602001828054611e3290614165565b8015611e7f5780601f10611e5457610100808354040283529160200191611e7f565b820191906000526020600020905b815481529060010190602001808311611e6257829003601f168201915b50505050508152602001600482018054611e9890614165565b80601f0160208091040260200160405190810160405280929190818152602001828054611ec490614165565b8015611f115780601f10611ee657610100808354040283529160200191611f11565b820191906000526020600020905b815481529060010190602001808311611ef457829003601f168201915b50505050508152602001600582018054611f2a90614165565b80601f0160208091040260200160405190810160405280929190818152602001828054611f5690614165565b8015611fa35780601f10611f7857610100808354040283529160200191611fa3565b820191906000526020600020905b815481529060010190602001808311611f8657829003601f168201915b50505050508152602001600682015481526020016007820154815260200160088201548152602001600982015481525050838381518110611fe757611fe6613f7e565b5b6020026020010181905250508080611ffe90614414565b915050611c96565b5080915050919050565b6060600060015467ffffffffffffffff8111156120305761202f6134c7565b5b60405190808252806020026020018201604052801561206957816020015b61205661323d565b81526020019060019003908161204e5790505b50905060005b6001548110156124335760006002828154811061208f5761208e613f7e565b5b90600052602060002090600d0201905080604051806101c0016040529081600082015481526020016001820180546120c690614165565b80601f01602080910402602001604051908101604052809291908181526020018280546120f290614165565b801561213f5780601f106121145761010080835404028352916020019161213f565b820191906000526020600020905b81548152906001019060200180831161212257829003601f168201915b5050505050815260200160028201805461215890614165565b80601f016020809104026020016040519081016040528092919081815260200182805461218490614165565b80156121d15780601f106121a6576101008083540402835291602001916121d1565b820191906000526020600020905b8154815290600101906020018083116121b457829003601f168201915b505050505081526020016003820180546121ea90614165565b80601f016020809104026020016040519081016040528092919081815260200182805461221690614165565b80156122635780601f1061223857610100808354040283529160200191612263565b820191906000526020600020905b81548152906001019060200180831161224657829003601f168201915b5050505050815260200160048201805461227c90614165565b80601f01602080910402602001604051908101604052809291908181526020018280546122a890614165565b80156122f55780601f106122ca576101008083540402835291602001916122f5565b820191906000526020600020905b8154815290600101906020018083116122d857829003601f168201915b505050505081526020016005820154815260200160068201548152602001600782015481526020016008820154815260200160098201548152602001600a8201548152602001600b820160009054906101000a900460ff16151515158152602001600b820160019054906101000a900473ffffffffffffffffffffffffffffffffffffffff1673ffffffffffffffffffffffffffffffffffffffff1673ffffffffffffffffffffffffffffffffffffffff168152602001600c820160009054906101000a900473ffffffffffffffffffffffffffffffffffffffff1673ffffffffffffffffffffffffffffffffffffffff1673ffffffffffffffffffffffffffffffffffffffff168152505083838151811061241457612413613f7e565b5b602002602001018190525050808061242b90614414565b91505061206f565b508091505090565b3373ffffffffffffffffffffffffffffffffffffffff166002838154811061246657612465613f7e565b5b90600052602060002090600d0201600c0160009054906101000a900473ffffffffffffffffffffffffffffffffffffffff1673ffffffffffffffffffffffffffffffffffffffff16146124b857600080fd5b600282815481106124cc576124cb613f7e565b5b90600052602060002090600d0201600b0160019054906101000a900473ffffffffffffffffffffffffffffffffffffffff1673ffffffffffffffffffffffffffffffffffffffff16636f8b44b0826040518263ffffffff1660e01b81526004016125369190613491565b600060405180830381600087803b15801561255057600080fd5b505af1158015612564573d6000803e3d6000fd5b5050505060006002838154811061257e5761257d613f7e565b5b90600052602060002090600d02019050818160090181905550505050565b3373ffffffffffffffffffffffffffffffffffffffff16600283815481106125c7576125c6613f7e565b5b90600052602060002090600d0201600c0160009054906101000a900473ffffffffffffffffffffffffffffffffffffffff1673ffffffffffffffffffffffffffffffffffffffff161461261957600080fd5b6002828154811061262d5761262c613f7e565b5b90600052602060002090600d0201600b0160019054906101000a900473ffffffffffffffffffffffffffffffffffffffff1673ffffffffffffffffffffffffffffffffffffffff166391b7f5ed826040518263ffffffff1660e01b81526004016126979190613491565b600060405180830381600087803b1580156126b157600080fd5b505af11580156126c5573d6000803e3d6000fd5b505050506000600283815481106126df576126de613f7e565b5b90600052602060002090600d02019050818160080181905550505050565b3373ffffffffffffffffffffffffffffffffffffffff166002848154811061272857612727613f7e565b5b90600052602060002090600d0201600c0160009054906101000a900473ffffffffffffffffffffffffffffffffffffffff1673ffffffffffffffffffffffffffffffffffffffff16146127b0576040517f08c379a00000000000000000000000000000000000000000000000000000000081526004016127a79061456b565b60405180910390fd5b6000600284815481106127c6576127c5613f7e565b5b90600052602060002090600d02019050818160040190816127e79190614342565b50600284815481106127fc576127fb613f7e565b5b90600052602060002090600d0201600b0160019054906101000a900473ffffffffffffffffffffffffffffffffffffffff1673ffffffffffffffffffffffffffffffffffffffff1663a49a1e7d846040518263ffffffff1660e01b815260040161286691906144fd565b600060405180830381600087803b15801561288057600080fd5b505af1158015612894573d6000803e3d6000fd5b5050505050505050565b3373ffffffffffffffffffffffffffffffffffffffff16600283815481106128c9576128c8613f7e565b5b90600052602060002090600d0201600c0160009054906101000a900473ffffffffffffffffffffffffffffffffffffffff1673ffffffffffffffffffffffffffffffffffffffff161461291b57600080fd5b60006002838154811061293157612930613f7e565b5b90600052602060002090600d0201600b0160019054906101000a900473ffffffffffffffffffffffffffffffffffffffff1673ffffffffffffffffffffffffffffffffffffffff1663f19e75d4836040518263ffffffff1660e01b815260040161299b9190613491565b6000604051808303816000875af11580156129ba573d6000803e3d6000fd5b505050506040513d6000823e3d601f19601f820116820180604052508101906129e3919061408a565b905081600560003373ffffffffffffffffffffffffffffffffffffffff1673ffffffffffffffffffffffffffffffffffffffff16815260200190815260200160002060008581526020019081526020016000206000828254612a459190614102565b92505081905550600060028481548110612a6257612a61613f7e565b5b90600052602060002090600d0201905060005b83811015612e36576000604051806101400160405280878152602001858481518110612aa457612aa3613f7e565b5b60200260200101518152602001846001018054612ac090614165565b80601f0160208091040260200160405190810160405280929190818152602001828054612aec90614165565b8015612b395780601f10612b0e57610100808354040283529160200191612b39565b820191906000526020600020905b815481529060010190602001808311612b1c57829003601f168201915b50505050508152602001846002018054612b5290614165565b80601f0160208091040260200160405190810160405280929190818152602001828054612b7e90614165565b8015612bcb5780601f10612ba057610100808354040283529160200191612bcb565b820191906000526020600020905b815481529060010190602001808311612bae57829003601f168201915b50505050508152602001846003018054612be490614165565b80601f0160208091040260200160405190810160405280929190818152602001828054612c1090614165565b8015612c5d5780601f10612c3257610100808354040283529160200191612c5d565b820191906000526020600020905b815481529060010190602001808311612c4057829003601f168201915b50505050508152602001846004018054612c7690614165565b80601f0160208091040260200160405190810160405280929190818152602001828054612ca290614165565b8015612cef5780601f10612cc457610100808354040283529160200191612cef565b820191906000526020600020905b815481529060010190602001808311612cd257829003601f168201915b5050505050815260200184600501548152602001846006015481526020018460070154815260200184600801548152509050600460003373ffffffffffffffffffffffffffffffffffffffff1673ffffffffffffffffffffffffffffffffffffffff1681526020019081526020016000208190806001815401808255809150506001900390600052602060002090600a020160009091909190915060008201518160000155602082015181600101556040820151816002019081612db39190614342565b506060820151816003019081612dc99190614342565b506080820151816004019081612ddf9190614342565b5060a0820151816005019081612df59190614342565b5060c0820151816006015560e08201518160070155610100820151816008015561012082015181600901555050508080612e2e90614414565b915050612a75565b5050505050565b3373ffffffffffffffffffffffffffffffffffffffff1660028381548110612e6857612e67613f7e565b5b90600052602060002090600d0201600c0160009054906101000a900473ffffffffffffffffffffffffffffffffffffffff1673ffffffffffffffffffffffffffffffffffffffff1614612eba57600080fd5b600060028381548110612ed057612ecf613f7e565b5b90600052602060002090600d0201905081816003019081612ef19190614342565b50505050565b612eff6130f3565b600073ffffffffffffffffffffffffffffffffffffffff168173ffffffffffffffffffffffffffffffffffffffff1603612f6e576040517f08c379a0000000000000000000000000000000000000000000000000000000008152600401612f65906145fd565b60405180910390fd5b612f7781613171565b50565b3373ffffffffffffffffffffffffffffffffffffffff1660028581548110612fa557612fa4613f7e565b5b90600052602060002090600d0201600c0160009054906101000a900473ffffffffffffffffffffffffffffffffffffffff1673ffffffffffffffffffffffffffffffffffffffff1614612ff757600080fd5b6002848154811061300b5761300a613f7e565b5b90600052602060002090600d0201600b0160019054906101000a900473ffffffffffffffffffffffffffffffffffffffff1673ffffffffffffffffffffffffffffffffffffffff166328760e608484846040518463ffffffff1660e01b81526004016130799392919061461d565b600060405180830381600087803b15801561309357600080fd5b505af11580156130a7573d6000803e3d6000fd5b505050506000600285815481106130c1576130c0613f7e565b5b90600052602060002090600d020190508381600501819055508281600601819055508181600701819055505050505050565b6130fb613235565b73ffffffffffffffffffffffffffffffffffffffff1661311961183c565b73ffffffffffffffffffffffffffffffffffffffff161461316f576040517f08c379a0000000000000000000000000000000000000000000000000000000008152600401613166906146a0565b60405180910390fd5b565b60008060009054906101000a900473ffffffffffffffffffffffffffffffffffffffff169050816000806101000a81548173ffffffffffffffffffffffffffffffffffffffff021916908373ffffffffffffffffffffffffffffffffffffffff1602179055508173ffffffffffffffffffffffffffffffffffffffff168173ffffffffffffffffffffffffffffffffffffffff167f8be0079c531659141344cd1fd0a4f28419497f9722a3daafe3b4186f6b6457e060405160405180910390a35050565b600033905090565b604051806101c001604052806000815260200160608152602001606081526020016060815260200160608152602001600081526020016000815260200160008152602001600081526020016000815260200160008152602001600015158152602001600073ffffffffffffffffffffffffffffffffffffffff168152602001600073ffffffffffffffffffffffffffffffffffffffff1681525090565b604051806101400160405280600081526020016000815260200160608152602001606081526020016060815260200160608152602001600081526020016000815260200160008152602001600081525090565b6000604051905090565b600080fd5b600080fd5b6000819050919050565b61335481613341565b811461335f57600080fd5b50565b6000813590506133718161334b565b92915050565b60006020828403121561338d5761338c613337565b5b600061339b84828501613362565b91505092915050565b600080604083850312156133bb576133ba613337565b5b60006133c985828601613362565b92505060206133da85828601613362565b9150509250929050565b600073ffffffffffffffffffffffffffffffffffffffff82169050919050565b600061340f826133e4565b9050919050565b61341f81613404565b811461342a57600080fd5b50565b60008135905061343c81613416565b92915050565b6000806040838503121561345957613458613337565b5b60006134678582860161342d565b925050602061347885828601613362565b9150509250929050565b61348b81613341565b82525050565b60006020820190506134a66000830184613482565b92915050565b600080fd5b600080fd5b6000601f19601f8301169050919050565b7f4e487b7100000000000000000000000000000000000000000000000000000000600052604160045260246000fd5b6134ff826134b6565b810181811067ffffffffffffffff8211171561351e5761351d6134c7565b5b80604052505050565b600061353161332d565b905061353d82826134f6565b919050565b600067ffffffffffffffff82111561355d5761355c6134c7565b5b613566826134b6565b9050602081019050919050565b82818337600083830152505050565b600061359561359084613542565b613527565b9050828152602081018484840111156135b1576135b06134b1565b5b6135bc848285613573565b509392505050565b600082601f8301126135d9576135d86134ac565b5b81356135e9848260208601613582565b91505092915050565b60008060008060008060008060008060006101608c8e03121561361857613617613337565b5b60008c013567ffffffffffffffff8111156136365761363561333c565b5b6136428e828f016135c4565b9b505060208c013567ffffffffffffffff8111156136635761366261333c565b5b61366f8e828f016135c4565b9a505060408c013567ffffffffffffffff8111156136905761368f61333c565b5b61369c8e828f016135c4565b99505060608c013567ffffffffffffffff8111156136bd576136bc61333c565b5b6136c98e828f016135c4565b98505060806136da8e828f01613362565b97505060a06136eb8e828f01613362565b96505060c06136fc8e828f01613362565b95505060e061370d8e828f01613362565b94505061010061371f8e828f01613362565b9350506101206137318e828f01613362565b9250506101406137438e828f0161342d565b9150509295989b509295989b9093969950565b60006020828403121561376c5761376b613337565b5b600061377a8482850161342d565b91505092915050565b600081519050919050565b600082825260208201905092915050565b6000819050602082019050919050565b6137b881613341565b82525050565b600081519050919050565b600082825260208201905092915050565b60005b838110156137f85780820151818401526020810190506137dd565b60008484015250505050565b600061380f826137be565b61381981856137c9565b93506138298185602086016137da565b613832816134b6565b840191505092915050565b60008115159050919050565b6138528161383d565b82525050565b61386181613404565b82525050565b60006101c08301600083015161388060008601826137af565b50602083015184820360208601526138988282613804565b915050604083015184820360408601526138b28282613804565b915050606083015184820360608601526138cc8282613804565b915050608083015184820360808601526138e68282613804565b91505060a08301516138fb60a08601826137af565b5060c083015161390e60c08601826137af565b5060e083015161392160e08601826137af565b506101008301516139366101008601826137af565b5061012083015161394b6101208601826137af565b506101408301516139606101408601826137af565b50610160830151613975610160860182613849565b5061018083015161398a610180860182613858565b506101a083015161399f6101a0860182613858565b508091505092915050565b60006139b68383613867565b905092915050565b6000602082019050919050565b60006139d682613783565b6139e0818561378e565b9350836020820285016139f28561379f565b8060005b85811015613a2e5784840389528151613a0f85826139aa565b9450613a1a836139be565b925060208a019950506001810190506139f6565b50829750879550505050505092915050565b60006020820190508181036000830152613a5a81846139cb565b905092915050565b613a6b8161383d565b8114613a7657600080fd5b50565b600081359050613a8881613a62565b92915050565b60008060408385031215613aa557613aa4613337565b5b6000613ab385828601613362565b9250506020613ac485828601613a79565b9150509250929050565b60008060408385031215613ae557613ae4613337565b5b6000613af385828601613362565b925050602083013567ffffffffffffffff811115613b1457613b1361333c565b5b613b20858286016135c4565b9150509250929050565b613b3381613404565b82525050565b6000602082019050613b4e6000830184613b2a565b92915050565b60006101c083016000830151613b6d60008601826137af565b5060208301518482036020860152613b858282613804565b91505060408301518482036040860152613b9f8282613804565b91505060608301518482036060860152613bb98282613804565b91505060808301518482036080860152613bd38282613804565b91505060a0830151613be860a08601826137af565b5060c0830151613bfb60c08601826137af565b5060e0830151613c0e60e08601826137af565b50610100830151613c236101008601826137af565b50610120830151613c386101208601826137af565b50610140830151613c4d6101408601826137af565b50610160830151613c62610160860182613849565b50610180830151613c77610180860182613858565b506101a0830151613c8c6101a0860182613858565b508091505092915050565b60006020820190508181036000830152613cb18184613b54565b905092915050565b600081519050919050565b600082825260208201905092915050565b6000819050602082019050919050565b600061014083016000830151613cfe60008601826137af565b506020830151613d1160208601826137af565b5060408301518482036040860152613d298282613804565b91505060608301518482036060860152613d438282613804565b91505060808301518482036080860152613d5d8282613804565b91505060a083015184820360a0860152613d778282613804565b91505060c0830151613d8c60c08601826137af565b5060e0830151613d9f60e08601826137af565b50610100830151613db46101008601826137af565b50610120830151613dc96101208601826137af565b508091505092915050565b6000613de08383613ce5565b905092915050565b6000602082019050919050565b6000613e0082613cb9565b613e0a8185613cc4565b935083602082028501613e1c85613cd5565b8060005b85811015613e585784840389528151613e398582613dd4565b9450613e4483613de8565b925060208a01995050600181019050613e20565b50829750879550505050505092915050565b60006020820190508181036000830152613e848184613df5565b905092915050565b600080600060608486031215613ea557613ea4613337565b5b6000613eb386828701613362565b935050602084013567ffffffffffffffff811115613ed457613ed361333c565b5b613ee0868287016135c4565b925050604084013567ffffffffffffffff811115613f0157613f0061333c565b5b613f0d868287016135c4565b9150509250925092565b60008060008060808587031215613f3157613f30613337565b5b6000613f3f87828801613362565b9450506020613f5087828801613362565b9350506040613f6187828801613362565b9250506060613f7287828801613362565b91505092959194509250565b7f4e487b7100000000000000000000000000000000000000000000000000000000600052603260045260246000fd5b600067ffffffffffffffff821115613fc857613fc76134c7565b5b602082029050602081019050919050565b600080fd5b600081519050613fed8161334b565b92915050565b600061400661400184613fad565b613527565b9050808382526020820190506020840283018581111561402957614028613fd9565b5b835b81811015614052578061403e8882613fde565b84526020840193505060208101905061402b565b5050509392505050565b600082601f830112614071576140706134ac565b5b8151614081848260208601613ff3565b91505092915050565b6000602082840312156140a05761409f613337565b5b600082015167ffffffffffffffff8111156140be576140bd61333c565b5b6140ca8482850161405c565b91505092915050565b7f4e487b7100000000000000000000000000000000000000000000000000000000600052601160045260246000fd5b600061410d82613341565b915061411883613341565b92508282019050808211156141305761412f6140d3565b5b92915050565b7f4e487b7100000000000000000000000000000000000000000000000000000000600052602260045260246000fd5b6000600282049050600182168061417d57607f821691505b6020821081036141905761418f614136565b5b50919050565b60008190508160005260206000209050919050565b60006020601f8301049050919050565b600082821b905092915050565b6000600883026141f87fffffffffffffffffffffffffffffffffffffffffffffffffffffffffffffffff826141bb565b61420286836141bb565b95508019841693508086168417925050509392505050565b6000819050919050565b600061423f61423a61423584613341565b61421a565b613341565b9050919050565b6000819050919050565b61425983614224565b61426d61426582614246565b8484546141c8565b825550505050565b600090565b614282614275565b61428d818484614250565b505050565b5b818110156142b1576142a660008261427a565b600181019050614293565b5050565b601f8211156142f6576142c781614196565b6142d0846141ab565b810160208510156142df578190505b6142f36142eb856141ab565b830182614292565b50505b505050565b600082821c905092915050565b6000614319600019846008026142fb565b1980831691505092915050565b60006143328383614308565b9150826002028217905092915050565b61434b826137be565b67ffffffffffffffff811115614364576143636134c7565b5b61436e8254614165565b6143798282856142b5565b600060209050601f8311600181146143ac576000841561439a578287015190505b6143a48582614326565b86555061440c565b601f1984166143ba86614196565b60005b828110156143e2578489015182556001820191506020850194506020810190506143bd565b868310156143ff57848901516143fb601f891682614308565b8355505b6001600288020188555050505b505050505050565b600061441f82613341565b91507fffffffffffffffffffffffffffffffffffffffffffffffffffffffffffffffff8203614451576144506140d3565b5b600182019050919050565b60006020828403121561447257614471613337565b5b600061448084828501613fde565b91505092915050565b6144928161383d565b82525050565b60006020820190506144ad6000830184614489565b92915050565b600082825260208201905092915050565b60006144cf826137be565b6144d981856144b3565b93506144e98185602086016137da565b6144f2816134b6565b840191505092915050565b6000602082019050818103600083015261451781846144c4565b905092915050565b7f6f6e6c7920746865206f776e65722063616e206d616b65206368616e67657300600082015250565b6000614555601f836144b3565b91506145608261451f565b602082019050919050565b6000602082019050818103600083015261458481614548565b9050919050565b7f4f776e61626c653a206e6577206f776e657220697320746865207a65726f206160008201527f6464726573730000000000000000000000000000000000000000000000000000602082015250565b60006145e76026836144b3565b91506145f28261458b565b604082019050919050565b60006020820190508181036000830152614616816145da565b9050919050565b60006060820190506146326000830186613482565b61463f6020830185613482565b61464c6040830184613482565b949350505050565b7f4f776e61626c653a2063616c6c6572206973206e6f7420746865206f776e6572600082015250565b600061468a6020836144b3565b915061469582614654565b602082019050919050565b600060208201905081810360008301526146b98161467d565b905091905056fea2646970667358221220d9c0d97737d530b2ffe9f5f07a72930dbad1fa964a63ad342f58936580fe6c1a64736f6c63430008110033",
  "linkReferences": {},
  "deployedLinkReferences": {}
}