{
  "_format": "hh-sol-artifact-1",
  "contractName": "Ticket",
  "sourceName": "contracts/TicketContract.sol",
  "abi": [
    {
      "inputs": [
        {
          "internalType": "string",
          "name": "_name",
          "type": "string"
        },
        {
          "internalType": "string",
          "name": "_symbol",
          "type": "string"
        },
        {
          "internalType": "string",
          "name": "_metadata",
          "type": "string"
        },
        {
          "internalType": "string",
          "name": "_venue",
          "type": "string"
        },
        {
          "internalType": "uint256",
          "name": "_year",
          "type": "uint256"
        },
        {
          "internalType": "uint256",
          "name": "_month",
          "type": "uint256"
        },
        {
          "internalType": "uint256",
          "name": "_day",
          "type": "uint256"
        },
        {
          "internalType": "uint256",
          "name": "_price",
          "type": "uint256"
        },
        {
          "internalType": "uint256",
          "name": "_maxSupply",
          "type": "uint256"
        },
        {
          "internalType": "uint256",
          "name": "_maxAllocationPerAddress",
          "type": "uint256"
        },
        {
          "internalType": "address",
          "name": "_smartTix",
          "type": "address"
        }
      ],
      "stateMutability": "nonpayable",
      "type": "constructor"
    },
    {
      "inputs": [],
      "name": "ApprovalCallerNotOwnerNorApproved",
      "type": "error"
    },
    {
      "inputs": [],
      "name": "ApprovalQueryForNonexistentToken",
      "type": "error"
    },
    {
      "inputs": [],
      "name": "BalanceQueryForZeroAddress",
      "type": "error"
    },
    {
      "inputs": [],
      "name": "MintERC2309QuantityExceedsLimit",
      "type": "error"
    },
    {
      "inputs": [],
      "name": "MintToZeroAddress",
      "type": "error"
    },
    {
      "inputs": [],
      "name": "MintZeroQuantity",
      "type": "error"
    },
    {
      "inputs": [],
      "name": "OwnerQueryForNonexistentToken",
      "type": "error"
    },
    {
      "inputs": [],
      "name": "OwnershipNotInitializedForExtraData",
      "type": "error"
    },
    {
      "inputs": [],
      "name": "TransferCallerNotOwnerNorApproved",
      "type": "error"
    },
    {
      "inputs": [],
      "name": "TransferFromIncorrectOwner",
      "type": "error"
    },
    {
      "inputs": [],
      "name": "TransferToNonERC721ReceiverImplementer",
      "type": "error"
    },
    {
      "inputs": [],
      "name": "TransferToZeroAddress",
      "type": "error"
    },
    {
      "inputs": [],
      "name": "URIQueryForNonexistentToken",
      "type": "error"
    },
    {
      "anonymous": false,
      "inputs": [
        {
          "indexed": true,
          "internalType": "address",
          "name": "owner",
          "type": "address"
        },
        {
          "indexed": true,
          "internalType": "address",
          "name": "approved",
          "type": "address"
        },
        {
          "indexed": true,
          "internalType": "uint256",
          "name": "tokenId",
          "type": "uint256"
        }
      ],
      "name": "Approval",
      "type": "event"
    },
    {
      "anonymous": false,
      "inputs": [
        {
          "indexed": true,
          "internalType": "address",
          "name": "owner",
          "type": "address"
        },
        {
          "indexed": true,
          "internalType": "address",
          "name": "operator",
          "type": "address"
        },
        {
          "indexed": false,
          "internalType": "bool",
          "name": "approved",
          "type": "bool"
        }
      ],
      "name": "ApprovalForAll",
      "type": "event"
    },
    {
      "anonymous": false,
      "inputs": [
        {
          "indexed": true,
          "internalType": "uint256",
          "name": "fromTokenId",
          "type": "uint256"
        },
        {
          "indexed": false,
          "internalType": "uint256",
          "name": "toTokenId",
          "type": "uint256"
        },
        {
          "indexed": true,
          "internalType": "address",
          "name": "from",
          "type": "address"
        },
        {
          "indexed": true,
          "internalType": "address",
          "name": "to",
          "type": "address"
        }
      ],
      "name": "ConsecutiveTransfer",
      "type": "event"
    },
    {
      "anonymous": false,
      "inputs": [
        {
          "indexed": true,
          "internalType": "address",
          "name": "from",
          "type": "address"
        },
        {
          "indexed": true,
          "internalType": "address",
          "name": "to",
          "type": "address"
        },
        {
          "indexed": true,
          "internalType": "uint256",
          "name": "tokenId",
          "type": "uint256"
        }
      ],
      "name": "Transfer",
      "type": "event"
    },
    {
      "inputs": [
        {
          "internalType": "address",
          "name": "to",
          "type": "address"
        },
        {
          "internalType": "uint256",
          "name": "tokenId",
          "type": "uint256"
        }
      ],
      "name": "approve",
      "outputs": [],
      "stateMutability": "payable",
      "type": "function"
    },
    {
      "inputs": [
        {
          "internalType": "address",
          "name": "owner",
          "type": "address"
        }
      ],
      "name": "balanceOf",
      "outputs": [
        {
          "internalType": "uint256",
          "name": "",
          "type": "uint256"
        }
      ],
      "stateMutability": "view",
      "type": "function"
    },
    {
      "inputs": [],
      "name": "date",
      "outputs": [
        {
          "internalType": "uint256",
          "name": "",
          "type": "uint256"
        }
      ],
      "stateMutability": "view",
      "type": "function"
    },
    {
      "inputs": [],
      "name": "eventName",
      "outputs": [
        {
          "internalType": "string",
          "name": "",
          "type": "string"
        }
      ],
      "stateMutability": "view",
      "type": "function"
    },
    {
      "inputs": [
        {
          "internalType": "uint256",
          "name": "tokenId",
          "type": "uint256"
        }
      ],
      "name": "getApproved",
      "outputs": [
        {
          "internalType": "address",
          "name": "",
          "type": "address"
        }
      ],
      "stateMutability": "view",
      "type": "function"
    },
    {
      "inputs": [],
      "name": "getDate",
      "outputs": [
        {
          "internalType": "uint256",
          "name": "year",
          "type": "uint256"
        },
        {
          "internalType": "uint256",
          "name": "month",
          "type": "uint256"
        },
        {
          "internalType": "uint256",
          "name": "day",
          "type": "uint256"
        }
      ],
      "stateMutability": "view",
      "type": "function"
    },
    {
      "inputs": [],
      "name": "getTotalSupply",
      "outputs": [
        {
          "internalType": "uint256",
          "name": "",
          "type": "uint256"
        }
      ],
      "stateMutability": "view",
      "type": "function"
    },
    {
      "inputs": [
        {
          "internalType": "address",
          "name": "owner",
          "type": "address"
        },
        {
          "internalType": "address",
          "name": "operator",
          "type": "address"
        }
      ],
      "name": "isApprovedForAll",
      "outputs": [
        {
          "internalType": "bool",
          "name": "",
          "type": "bool"
        }
      ],
      "stateMutability": "view",
      "type": "function"
    },
    {
      "inputs": [],
      "name": "isSaleEnabled",
      "outputs": [
        {
          "internalType": "bool",
          "name": "",
          "type": "bool"
        }
      ],
      "stateMutability": "view",
      "type": "function"
    },
    {
      "inputs": [],
      "name": "maxAllocationPerAddress",
      "outputs": [
        {
          "internalType": "uint256",
          "name": "",
          "type": "uint256"
        }
      ],
      "stateMutability": "view",
      "type": "function"
    },
    {
      "inputs": [],
      "name": "maxSupply",
      "outputs": [
        {
          "internalType": "uint256",
          "name": "",
          "type": "uint256"
        }
      ],
      "stateMutability": "view",
      "type": "function"
    },
    {
      "inputs": [
        {
          "internalType": "uint256",
          "name": "_amount",
          "type": "uint256"
        }
      ],
      "name": "mint",
      "outputs": [
        {
          "internalType": "uint256[]",
          "name": "",
          "type": "uint256[]"
        }
      ],
      "stateMutability": "payable",
      "type": "function"
    },
    {
      "inputs": [],
      "name": "name",
      "outputs": [
        {
          "internalType": "string",
          "name": "",
          "type": "string"
        }
      ],
      "stateMutability": "view",
      "type": "function"
    },
    {
      "inputs": [
        {
          "internalType": "uint256",
          "name": "_amount",
          "type": "uint256"
        }
      ],
      "name": "ownerMint",
      "outputs": [
        {
          "internalType": "uint256[]",
          "name": "",
          "type": "uint256[]"
        }
      ],
      "stateMutability": "nonpayable",
      "type": "function"
    },
    {
      "inputs": [
        {
          "internalType": "uint256",
          "name": "tokenId",
          "type": "uint256"
        }
      ],
      "name": "ownerOf",
      "outputs": [
        {
          "internalType": "address",
          "name": "",
          "type": "address"
        }
      ],
      "stateMutability": "view",
      "type": "function"
    },
    {
      "inputs": [],
      "name": "price",
      "outputs": [
        {
          "internalType": "uint256",
          "name": "",
          "type": "uint256"
        }
      ],
      "stateMutability": "view",
      "type": "function"
    },
    {
      "inputs": [
        {
          "internalType": "address",
          "name": "from",
          "type": "address"
        },
        {
          "internalType": "address",
          "name": "to",
          "type": "address"
        },
        {
          "internalType": "uint256",
          "name": "tokenId",
          "type": "uint256"
        }
      ],
      "name": "safeTransferFrom",
      "outputs": [],
      "stateMutability": "payable",
      "type": "function"
    },
    {
      "inputs": [
        {
          "internalType": "address",
          "name": "from",
          "type": "address"
        },
        {
          "internalType": "address",
          "name": "to",
          "type": "address"
        },
        {
          "internalType": "uint256",
          "name": "tokenId",
          "type": "uint256"
        },
        {
          "internalType": "bytes",
          "name": "_data",
          "type": "bytes"
        }
      ],
      "name": "safeTransferFrom",
      "outputs": [],
      "stateMutability": "payable",
      "type": "function"
    },
    {
      "inputs": [
        {
          "internalType": "address",
          "name": "operator",
          "type": "address"
        },
        {
          "internalType": "bool",
          "name": "approved",
          "type": "bool"
        }
      ],
      "name": "setApprovalForAll",
      "outputs": [],
      "stateMutability": "nonpayable",
      "type": "function"
    },
    {
      "inputs": [
        {
          "internalType": "uint256",
          "name": "_year",
          "type": "uint256"
        },
        {
          "internalType": "uint256",
          "name": "_month",
          "type": "uint256"
        },
        {
          "internalType": "uint256",
          "name": "_day",
          "type": "uint256"
        }
      ],
      "name": "setDate",
      "outputs": [],
      "stateMutability": "nonpayable",
      "type": "function"
    },
    {
      "inputs": [
        {
          "internalType": "uint256",
          "name": "_maxAllocation",
          "type": "uint256"
        }
      ],
      "name": "setMaxAllocationPerUser",
      "outputs": [],
      "stateMutability": "nonpayable",
      "type": "function"
    },
    {
      "inputs": [
        {
          "internalType": "uint256",
          "name": "_maxSupply",
          "type": "uint256"
        }
      ],
      "name": "setMaxSupply",
      "outputs": [],
      "stateMutability": "nonpayable",
      "type": "function"
    },
    {
      "inputs": [
        {
          "internalType": "string",
          "name": "_newMetadata",
          "type": "string"
        }
      ],
      "name": "setMetadata",
      "outputs": [],
      "stateMutability": "nonpayable",
      "type": "function"
    },
    {
      "inputs": [
        {
          "internalType": "uint256",
          "name": "_price",
          "type": "uint256"
        }
      ],
      "name": "setPrice",
      "outputs": [],
      "stateMutability": "nonpayable",
      "type": "function"
    },
    {
      "inputs": [
        {
          "internalType": "bool",
          "name": "_phase",
          "type": "bool"
        }
      ],
      "name": "setSalePhase",
      "outputs": [],
      "stateMutability": "nonpayable",
      "type": "function"
    },
    {
      "inputs": [
        {
          "internalType": "string",
          "name": "_venue",
          "type": "string"
        }
      ],
      "name": "setVenue",
      "outputs": [],
      "stateMutability": "nonpayable",
      "type": "function"
    },
    {
      "inputs": [
        {
          "internalType": "bytes4",
          "name": "interfaceId",
          "type": "bytes4"
        }
      ],
      "name": "supportsInterface",
      "outputs": [
        {
          "internalType": "bool",
          "name": "",
          "type": "bool"
        }
      ],
      "stateMutability": "view",
      "type": "function"
    },
    {
      "inputs": [],
      "name": "symbol",
      "outputs": [
        {
          "internalType": "string",
          "name": "",
          "type": "string"
        }
      ],
      "stateMutability": "view",
      "type": "function"
    },
    {
      "inputs": [
        {
          "internalType": "address",
          "name": "",
          "type": "address"
        }
      ],
      "name": "ticketsBought",
      "outputs": [
        {
          "internalType": "uint256",
          "name": "",
          "type": "uint256"
        }
      ],
      "stateMutability": "view",
      "type": "function"
    },
    {
      "inputs": [
        {
          "internalType": "uint256",
          "name": "tokenId",
          "type": "uint256"
        }
      ],
      "name": "tokenURI",
      "outputs": [
        {
          "internalType": "string",
          "name": "",
          "type": "string"
        }
      ],
      "stateMutability": "view",
      "type": "function"
    },
    {
      "inputs": [],
      "name": "totalSupply",
      "outputs": [
        {
          "internalType": "uint256",
          "name": "",
          "type": "uint256"
        }
      ],
      "stateMutability": "view",
      "type": "function"
    },
    {
      "inputs": [
        {
          "internalType": "address",
          "name": "from",
          "type": "address"
        },
        {
          "internalType": "address",
          "name": "to",
          "type": "address"
        },
        {
          "internalType": "uint256",
          "name": "tokenId",
          "type": "uint256"
        }
      ],
      "name": "transferFrom",
      "outputs": [],
      "stateMutability": "payable",
      "type": "function"
    },
    {
      "inputs": [],
      "name": "venue",
      "outputs": [
        {
          "internalType": "string",
          "name": "",
          "type": "string"
        }
      ],
      "stateMutability": "view",
      "type": "function"
    },
    {
      "inputs": [],
      "name": "withdrawFunds",
      "outputs": [],
      "stateMutability": "nonpayable",
      "type": "function"
    }
  ],
  "bytecode": "0x60806040523480156200001157600080fd5b5060405162004a4a38038062004a4a833981810160405281019062000037919062000588565b8a8a81600290816200004a919062000952565b5080600390816200005c919062000952565b506200006d6200018c60201b60201c565b60008190555050508360088190555088600f90816200008d919062000952565b508a600c90816200009f919062000952565b5087600d9081620000b1919062000952565b50620000ca8787876200019560201b62001f8f1760201c565b600b819055508260098190555081600a819055506000600e60006101000a81548160ff02191690831515021790555033601160006101000a81548173ffffffffffffffffffffffffffffffffffffffff021916908373ffffffffffffffffffffffffffffffffffffffff16021790555080601060006101000a81548173ffffffffffffffffffffffffffffffffffffffff021916908373ffffffffffffffffffffffffffffffffffffffff160217905550505050505050505050505062000c79565b60006001905090565b600062015180620001ae858585620001c360201b60201c565b620001ba919062000a68565b90509392505050565b60006107b2841015620001d557600080fd5b600084905060008490506000849050600062253d8c60046064600c600e87620001ff919062000abd565b6200020b919062000b36565b611324886200021b919062000baa565b62000227919062000baa565b62000233919062000b36565b600362000241919062000bf5565b6200024d919062000b36565b600c80600c600e8862000261919062000abd565b6200026d919062000b36565b62000279919062000bf5565b60028762000288919062000abd565b62000294919062000abd565b61016f620002a3919062000bf5565b620002af919062000b36565b6004600c600e88620002c2919062000abd565b620002ce919062000b36565b6112c089620002de919062000baa565b620002ea919062000baa565b6105b5620002f9919062000bf5565b62000305919062000b36565b617d4b8662000315919062000abd565b62000321919062000baa565b6200032d919062000baa565b62000339919062000abd565b62000345919062000abd565b9050809450505050509392505050565b6000604051905090565b600080fd5b600080fd5b600080fd5b600080fd5b6000601f19601f8301169050919050565b7f4e487b7100000000000000000000000000000000000000000000000000000000600052604160045260246000fd5b620003be8262000373565b810181811067ffffffffffffffff82111715620003e057620003df62000384565b5b80604052505050565b6000620003f562000355565b9050620004038282620003b3565b919050565b600067ffffffffffffffff82111562000426576200042562000384565b5b620004318262000373565b9050602081019050919050565b60005b838110156200045e57808201518184015260208101905062000441565b60008484015250505050565b6000620004816200047b8462000408565b620003e9565b905082815260208101848484011115620004a0576200049f6200036e565b5b620004ad8482856200043e565b509392505050565b600082601f830112620004cd57620004cc62000369565b5b8151620004df8482602086016200046a565b91505092915050565b6000819050919050565b620004fd81620004e8565b81146200050957600080fd5b50565b6000815190506200051d81620004f2565b92915050565b600073ffffffffffffffffffffffffffffffffffffffff82169050919050565b6000620005508262000523565b9050919050565b620005628162000543565b81146200056e57600080fd5b50565b600081519050620005828162000557565b92915050565b60008060008060008060008060008060006101608c8e031215620005b157620005b06200035f565b5b60008c015167ffffffffffffffff811115620005d257620005d162000364565b5b620005e08e828f01620004b5565b9b505060208c015167ffffffffffffffff81111562000604576200060362000364565b5b620006128e828f01620004b5565b9a505060408c015167ffffffffffffffff81111562000636576200063562000364565b5b620006448e828f01620004b5565b99505060608c015167ffffffffffffffff81111562000668576200066762000364565b5b620006768e828f01620004b5565b9850506080620006898e828f016200050c565b97505060a06200069c8e828f016200050c565b96505060c0620006af8e828f016200050c565b95505060e0620006c28e828f016200050c565b945050610100620006d68e828f016200050c565b935050610120620006ea8e828f016200050c565b925050610140620006fe8e828f0162000571565b9150509295989b509295989b9093969950565b600081519050919050565b7f4e487b7100000000000000000000000000000000000000000000000000000000600052602260045260246000fd5b600060028204905060018216806200076457607f821691505b6020821081036200077a57620007796200071c565b5b50919050565b60008190508160005260206000209050919050565b60006020601f8301049050919050565b600082821b905092915050565b600060088302620007e47fffffffffffffffffffffffffffffffffffffffffffffffffffffffffffffffff82620007a5565b620007f08683620007a5565b95508019841693508086168417925050509392505050565b6000819050919050565b6000620008336200082d6200082784620004e8565b62000808565b620004e8565b9050919050565b6000819050919050565b6200084f8362000812565b620008676200085e826200083a565b848454620007b2565b825550505050565b600090565b6200087e6200086f565b6200088b81848462000844565b505050565b5b81811015620008b357620008a760008262000874565b60018101905062000891565b5050565b601f8211156200090257620008cc8162000780565b620008d78462000795565b81016020851015620008e7578190505b620008ff620008f68562000795565b83018262000890565b50505b505050565b600082821c905092915050565b6000620009276000198460080262000907565b1980831691505092915050565b600062000942838362000914565b9150826002028217905092915050565b6200095d8262000711565b67ffffffffffffffff81111562000979576200097862000384565b5b6200098582546200074b565b62000992828285620008b7565b600060209050601f831160018114620009ca5760008415620009b5578287015190505b620009c1858262000934565b86555062000a31565b601f198416620009da8662000780565b60005b8281101562000a0457848901518255600182019150602085019450602081019050620009dd565b8683101562000a24578489015162000a20601f89168262000914565b8355505b6001600288020188555050505b505050505050565b7f4e487b7100000000000000000000000000000000000000000000000000000000600052601160045260246000fd5b600062000a7582620004e8565b915062000a8283620004e8565b925082820262000a9281620004e8565b9150828204841483151762000aac5762000aab62000a39565b5b5092915050565b6000819050919050565b600062000aca8262000ab3565b915062000ad78362000ab3565b925082820390508181126000841216828213600085121516171562000b015762000b0062000a39565b5b92915050565b7f4e487b7100000000000000000000000000000000000000000000000000000000600052601260045260246000fd5b600062000b438262000ab3565b915062000b508362000ab3565b92508262000b635762000b6262000b07565b5b600160000383147f80000000000000000000000000000000000000000000000000000000000000008314161562000b9f5762000b9e62000a39565b5b828205905092915050565b600062000bb78262000ab3565b915062000bc48362000ab3565b92508282019050828112156000831216838212600084121516171562000bef5762000bee62000a39565b5b92915050565b600062000c028262000ab3565b915062000c0f8362000ab3565b925082820262000c1f8162000ab3565b91507f8000000000000000000000000000000000000000000000000000000000000000841460008412161562000c5a5762000c5962000a39565b5b828205841483151762000c725762000c7162000a39565b5b5092915050565b613dc18062000c896000396000f3fe6080604052600436106101f95760003560e01c806384bd32641161010d578063a49a1e7d116100a0578063cc69c4e81161006f578063cc69c4e8146106f2578063d4460a081461071d578063d5abeb0114610746578063e985e9c514610771578063f19e75d4146107ae576101f9565b8063a49a1e7d14610645578063b88d4fde1461066e578063c4e41b221461068a578063c87b56dd146106b5576101f9565b8063a035b1fe116100dc578063a035b1fe14610596578063a0712d68146105c1578063a22cb465146105f1578063a270a7371461061a576101f9565b806384bd3264146104da57806386e755c61461051757806391b7f5ed1461054257806395d89b411461056b576101f9565b8063323046b1116101905780636f8b44b01161015f5780636f8b44b0146103f757806370a08231146104205780637aaa7da51461045d5780638043c9c01461048657806382103f03146104b1576101f9565b8063323046b11461034657806342842e0e14610371578063430fe9c11461038d5780636352211e146103ba576101f9565b806318160ddd116101cc57806318160ddd146102bf57806323b872dd146102ea57806324600fc31461030657806328760e601461031d576101f9565b806301ffc9a7146101fe57806306fdde031461023b578063081812fc14610266578063095ea7b3146102a3575b600080fd5b34801561020a57600080fd5b50610225600480360381019061022091906128a5565b6107eb565b60405161023291906128ed565b60405180910390f35b34801561024757600080fd5b5061025061087d565b60405161025d9190612998565b60405180910390f35b34801561027257600080fd5b5061028d600480360381019061028891906129f0565b61090f565b60405161029a9190612a5e565b60405180910390f35b6102bd60048036038101906102b89190612aa5565b61098e565b005b3480156102cb57600080fd5b506102d4610ad2565b6040516102e19190612af4565b60405180910390f35b61030460048036038101906102ff9190612b0f565b610ae9565b005b34801561031257600080fd5b5061031b610e0b565b005b34801561032957600080fd5b50610344600480360381019061033f9190612b62565b610fce565b005b34801561035257600080fd5b5061035b611086565b6040516103689190612af4565b60405180910390f35b61038b60048036038101906103869190612b0f565b61108c565b005b34801561039957600080fd5b506103a26110ac565b6040516103b193929190612bb5565b60405180910390f35b3480156103c657600080fd5b506103e160048036038101906103dc91906129f0565b6110cd565b6040516103ee9190612a5e565b60405180910390f35b34801561040357600080fd5b5061041e600480360381019061041991906129f0565b6110df565b005b34801561042c57600080fd5b5061044760048036038101906104429190612bec565b611186565b6040516104549190612af4565b60405180910390f35b34801561046957600080fd5b50610484600480360381019061047f9190612c45565b61123e565b005b34801561049257600080fd5b5061049b6112b5565b6040516104a89190612998565b60405180910390f35b3480156104bd57600080fd5b506104d860048036038101906104d39190612da7565b611343565b005b3480156104e657600080fd5b5061050160048036038101906104fc9190612bec565b61143c565b60405161050e9190612af4565b60405180910390f35b34801561052357600080fd5b5061052c611454565b6040516105399190612af4565b60405180910390f35b34801561054e57600080fd5b50610569600480360381019061056491906129f0565b61145a565b005b34801561057757600080fd5b506105806114be565b60405161058d9190612998565b60405180910390f35b3480156105a257600080fd5b506105ab611550565b6040516105b89190612af4565b60405180910390f35b6105db60048036038101906105d691906129f0565b611556565b6040516105e89190612eae565b60405180910390f35b3480156105fd57600080fd5b5061061860048036038101906106139190612ed0565b611882565b005b34801561062657600080fd5b5061062f61198d565b60405161063c9190612998565b60405180910390f35b34801561065157600080fd5b5061066c60048036038101906106679190612da7565b611a1b565b005b61068860048036038101906106839190612fb1565b611b14565b005b34801561069657600080fd5b5061069f611b87565b6040516106ac9190612af4565b60405180910390f35b3480156106c157600080fd5b506106dc60048036038101906106d791906129f0565b611b96565b6040516106e99190612998565b60405180910390f35b3480156106fe57600080fd5b50610707611c72565b60405161071491906128ed565b60405180910390f35b34801561072957600080fd5b50610744600480360381019061073f91906129f0565b611c85565b005b34801561075257600080fd5b5061075b611d2c565b6040516107689190612af4565b60405180910390f35b34801561077d57600080fd5b5061079860048036038101906107939190613034565b611d32565b6040516107a591906128ed565b60405180910390f35b3480156107ba57600080fd5b506107d560048036038101906107d091906129f0565b611dc6565b6040516107e29190612eae565b60405180910390f35b60006301ffc9a760e01b827bffffffffffffffffffffffffffffffffffffffffffffffffffffffff1916148061084657506380ac58cd60e01b827bffffffffffffffffffffffffffffffffffffffffffffffffffffffff1916145b806108765750635b5e139f60e01b827bffffffffffffffffffffffffffffffffffffffffffffffffffffffff1916145b9050919050565b60606002805461088c906130a3565b80601f01602080910402602001604051908101604052809291908181526020018280546108b8906130a3565b80156109055780601f106108da57610100808354040283529160200191610905565b820191906000526020600020905b8154815290600101906020018083116108e857829003601f168201915b5050505050905090565b600061091a82611fb3565b610950576040517fcf4700e400000000000000000000000000000000000000000000000000000000815260040160405180910390fd5b6006600083815260200190815260200160002060000160009054906101000a900473ffffffffffffffffffffffffffffffffffffffff169050919050565b6000610999826110cd565b90508073ffffffffffffffffffffffffffffffffffffffff166109ba612012565b73ffffffffffffffffffffffffffffffffffffffff1614610a1d576109e6816109e1612012565b611d32565b610a1c576040517fcfb3b94200000000000000000000000000000000000000000000000000000000815260040160405180910390fd5b5b826006600084815260200190815260200160002060000160006101000a81548173ffffffffffffffffffffffffffffffffffffffff021916908373ffffffffffffffffffffffffffffffffffffffff160217905550818373ffffffffffffffffffffffffffffffffffffffff168273ffffffffffffffffffffffffffffffffffffffff167f8c5be1e5ebec7d5bd14f71427d1e84f3dd0314c0f7b2291e5b200ac8c7c3b92560405160405180910390a4505050565b6000610adc61201a565b6001546000540303905090565b6000610af482612023565b90508373ffffffffffffffffffffffffffffffffffffffff168173ffffffffffffffffffffffffffffffffffffffff1614610b5b576040517fa114810000000000000000000000000000000000000000000000000000000000815260040160405180910390fd5b600080610b67846120ef565b91509150610b7d8187610b78612012565b612116565b610bc957610b9286610b8d612012565b611d32565b610bc8576040517f59c896be00000000000000000000000000000000000000000000000000000000815260040160405180910390fd5b5b600073ffffffffffffffffffffffffffffffffffffffff168573ffffffffffffffffffffffffffffffffffffffff1603610c2f576040517fea553b3400000000000000000000000000000000000000000000000000000000815260040160405180910390fd5b610c3c868686600161215a565b8015610c4757600082555b600560008773ffffffffffffffffffffffffffffffffffffffff1673ffffffffffffffffffffffffffffffffffffffff168152602001908152602001600020600081546001900391905081905550600560008673ffffffffffffffffffffffffffffffffffffffff1673ffffffffffffffffffffffffffffffffffffffff1681526020019081526020016000206000815460010191905081905550610d1585610cf1888887612160565b7c020000000000000000000000000000000000000000000000000000000017612188565b600460008681526020019081526020016000208190555060007c0200000000000000000000000000000000000000000000000000000000841603610d9b5760006001850190506000600460008381526020019081526020016000205403610d99576000548114610d98578360046000838152602001908152602001600020819055505b5b505b838573ffffffffffffffffffffffffffffffffffffffff168773ffffffffffffffffffffffffffffffffffffffff167fddf252ad1be2c89b69c2b068fc378daa952ba7f163c4a11628f55a4df523b3ef60405160405180910390a4610e0386868660016121b3565b505050505050565b601060009054906101000a900473ffffffffffffffffffffffffffffffffffffffff1673ffffffffffffffffffffffffffffffffffffffff163373ffffffffffffffffffffffffffffffffffffffff1614610e6557600080fd5b600047905060006064605f83610e7b9190613103565b610e859190613174565b905060008183610e9591906131a5565b90506000601160009054906101000a900473ffffffffffffffffffffffffffffffffffffffff1673ffffffffffffffffffffffffffffffffffffffff1683604051610edf9061320a565b60006040518083038185875af1925050503d8060008114610f1c576040519150601f19603f3d011682016040523d82523d6000602084013e610f21565b606091505b5050905080610f2f57600080fd5b6000601060009054906101000a900473ffffffffffffffffffffffffffffffffffffffff1673ffffffffffffffffffffffffffffffffffffffff1683604051610f779061320a565b60006040518083038185875af1925050503d8060008114610fb4576040519150601f19603f3d011682016040523d82523d6000602084013e610fb9565b606091505b5050905080610fc757600080fd5b5050505050565b601060009054906101000a900473ffffffffffffffffffffffffffffffffffffffff1673ffffffffffffffffffffffffffffffffffffffff163373ffffffffffffffffffffffffffffffffffffffff161461102857600080fd5b6000611035848484611f8f565b9050428111611079576040517f08c379a000000000000000000000000000000000000000000000000000000000815260040161107090613291565b60405180910390fd5b80600b8190555050505050565b600b5481565b6110a783838360405180602001604052806000815250611b14565b505050565b60008060006110bc600b546121b9565b809350819450829550505050909192565b60006110d882612023565b9050919050565b601060009054906101000a900473ffffffffffffffffffffffffffffffffffffffff1673ffffffffffffffffffffffffffffffffffffffff163373ffffffffffffffffffffffffffffffffffffffff161461113957600080fd5b6000811161117c576040517f08c379a000000000000000000000000000000000000000000000000000000000815260040161117390613323565b60405180910390fd5b8060098190555050565b60008073ffffffffffffffffffffffffffffffffffffffff168273ffffffffffffffffffffffffffffffffffffffff16036111ed576040517f8f4eb60400000000000000000000000000000000000000000000000000000000815260040160405180910390fd5b67ffffffffffffffff600560008473ffffffffffffffffffffffffffffffffffffffff1673ffffffffffffffffffffffffffffffffffffffff16815260200190815260200160002054169050919050565b601060009054906101000a900473ffffffffffffffffffffffffffffffffffffffff1673ffffffffffffffffffffffffffffffffffffffff163373ffffffffffffffffffffffffffffffffffffffff161461129857600080fd5b80600e60006101000a81548160ff02191690831515021790555050565b600c80546112c2906130a3565b80601f01602080910402602001604051908101604052809291908181526020018280546112ee906130a3565b801561133b5780601f106113105761010080835404028352916020019161133b565b820191906000526020600020905b81548152906001019060200180831161131e57829003601f168201915b505050505081565b601060009054906101000a900473ffffffffffffffffffffffffffffffffffffffff1673ffffffffffffffffffffffffffffffffffffffff163373ffffffffffffffffffffffffffffffffffffffff161461139d57600080fd5b6040516020016113ac90613371565b60405160208183030381529060405280519060200120816040516020016113d391906133b7565b6040516020818303038152906040528051906020012003611429576040517f08c379a00000000000000000000000000000000000000000000000000000000081526004016114209061341a565b60405180910390fd5b80600d908161143891906135e6565b5050565b60126020528060005260406000206000915090505481565b600a5481565b601060009054906101000a900473ffffffffffffffffffffffffffffffffffffffff1673ffffffffffffffffffffffffffffffffffffffff163373ffffffffffffffffffffffffffffffffffffffff16146114b457600080fd5b8060088190555050565b6060600380546114cd906130a3565b80601f01602080910402602001604051908101604052809291908181526020018280546114f9906130a3565b80156115465780601f1061151b57610100808354040283529160200191611546565b820191906000526020600020905b81548152906001019060200180831161152957829003601f168201915b5050505050905090565b60085481565b6060601060009054906101000a900473ffffffffffffffffffffffffffffffffffffffff1673ffffffffffffffffffffffffffffffffffffffff163373ffffffffffffffffffffffffffffffffffffffff16146115b257600080fd5b600e60009054906101000a900460ff16611601576040517f08c379a00000000000000000000000000000000000000000000000000000000081526004016115f890613704565b60405180910390fd5b600b544210611645576040517f08c379a000000000000000000000000000000000000000000000000000000000815260040161163c90613770565b60405180910390fd5b600854826116539190613103565b341015611695576040517f08c379a000000000000000000000000000000000000000000000000000000000815260040161168c906137dc565b60405180910390fd5b600a5482601260003373ffffffffffffffffffffffffffffffffffffffff1673ffffffffffffffffffffffffffffffffffffffff168152602001908152602001600020546116e391906137fc565b1115611724576040517f08c379a000000000000000000000000000000000000000000000000000000000815260040161171b906138a2565b60405180910390fd5b60095482611730610ad2565b61173a91906137fc565b111561177b576040517f08c379a00000000000000000000000000000000000000000000000000000000081526004016117729061390e565b60405180910390fd5b81601260003373ffffffffffffffffffffffffffffffffffffffff1673ffffffffffffffffffffffffffffffffffffffff16815260200190815260200160002060008282546117ca91906137fc565b9250508190555060008267ffffffffffffffff8111156117ed576117ec612c7c565b5b60405190808252806020026020018201604052801561181b5781602001602082028036833780820191505090505b50905060005b8381101561186e57806118326121ed565b61183c91906137fc565b82828151811061184f5761184e61392e565b5b60200260200101818152505080806118669061395d565b915050611821565b5061187932846121f6565b80915050919050565b806007600061188f612012565b73ffffffffffffffffffffffffffffffffffffffff1673ffffffffffffffffffffffffffffffffffffffff16815260200190815260200160002060008473ffffffffffffffffffffffffffffffffffffffff1673ffffffffffffffffffffffffffffffffffffffff16815260200190815260200160002060006101000a81548160ff0219169083151502179055508173ffffffffffffffffffffffffffffffffffffffff1661193c612012565b73ffffffffffffffffffffffffffffffffffffffff167f17307eab39ab6107e8899845ad3d59bd9653f200f220920489ca2b5937696c318360405161198191906128ed565b60405180910390a35050565b600d805461199a906130a3565b80601f01602080910402602001604051908101604052809291908181526020018280546119c6906130a3565b8015611a135780601f106119e857610100808354040283529160200191611a13565b820191906000526020600020905b8154815290600101906020018083116119f657829003601f168201915b505050505081565b601060009054906101000a900473ffffffffffffffffffffffffffffffffffffffff1673ffffffffffffffffffffffffffffffffffffffff163373ffffffffffffffffffffffffffffffffffffffff1614611a7557600080fd5b604051602001611a8490613371565b6040516020818303038152906040528051906020012081604051602001611aab91906133b7565b6040516020818303038152906040528051906020012003611b01576040517f08c379a0000000000000000000000000000000000000000000000000000000008152600401611af89061341a565b60405180910390fd5b80600f9081611b1091906135e6565b5050565b611b1f848484610ae9565b60008373ffffffffffffffffffffffffffffffffffffffff163b14611b8157611b4a84848484612214565b611b80576040517fd1a57ed600000000000000000000000000000000000000000000000000000000815260040160405180910390fd5b5b50505050565b6000611b91610ad2565b905090565b6060611ba182611fb3565b611be0576040517f08c379a0000000000000000000000000000000000000000000000000000000008152600401611bd790613a17565b60405180910390fd5b600f8054611bed906130a3565b80601f0160208091040260200160405190810160405280929190818152602001828054611c19906130a3565b8015611c665780601f10611c3b57610100808354040283529160200191611c66565b820191906000526020600020905b815481529060010190602001808311611c4957829003601f168201915b50505050509050919050565b600e60009054906101000a900460ff1681565b601060009054906101000a900473ffffffffffffffffffffffffffffffffffffffff1673ffffffffffffffffffffffffffffffffffffffff163373ffffffffffffffffffffffffffffffffffffffff1614611cdf57600080fd5b60008111611d22576040517f08c379a0000000000000000000000000000000000000000000000000000000008152600401611d1990613aa9565b60405180910390fd5b80600a8190555050565b60095481565b6000600760008473ffffffffffffffffffffffffffffffffffffffff1673ffffffffffffffffffffffffffffffffffffffff16815260200190815260200160002060008373ffffffffffffffffffffffffffffffffffffffff1673ffffffffffffffffffffffffffffffffffffffff16815260200190815260200160002060009054906101000a900460ff16905092915050565b6060601060009054906101000a900473ffffffffffffffffffffffffffffffffffffffff1673ffffffffffffffffffffffffffffffffffffffff163373ffffffffffffffffffffffffffffffffffffffff1614611e2257600080fd5b60095482611e2e610ad2565b611e3891906137fc565b1115611e79576040517f08c379a0000000000000000000000000000000000000000000000000000000008152600401611e709061390e565b60405180910390fd5b60008211611ebc576040517f08c379a0000000000000000000000000000000000000000000000000000000008152600401611eb390613b15565b60405180910390fd5b60008267ffffffffffffffff811115611ed857611ed7612c7c565b5b604051908082528060200260200182016040528015611f065781602001602082028036833780820191505090505b50905060005b83811015611f595780611f1d6121ed565b611f2791906137fc565b828281518110611f3a57611f3961392e565b5b6020026020010181815250508080611f519061395d565b915050611f0c565b50611f86601160009054906101000a900473ffffffffffffffffffffffffffffffffffffffff16846121f6565b80915050919050565b600062015180611fa0858585612364565b611faa9190613103565b90509392505050565b600081611fbe61201a565b11158015611fcd575060005482105b801561200b575060007c0100000000000000000000000000000000000000000000000000000000600460008581526020019081526020016000205416145b9050919050565b600033905090565b60006001905090565b6000808290508061203261201a565b116120b8576000548110156120b75760006004600083815260200190815260200160002054905060007c01000000000000000000000000000000000000000000000000000000008216036120b5575b600081036120ab576004600083600190039350838152602001908152602001600020549050612081565b80925050506120ea565b505b5b6040517fdf2d9b4200000000000000000000000000000000000000000000000000000000815260040160405180910390fd5b919050565b60008060006006600085815260200190815260200160002090508092508254915050915091565b600073ffffffffffffffffffffffffffffffffffffffff8316925073ffffffffffffffffffffffffffffffffffffffff821691508382148383141790509392505050565b50505050565b60008060e883901c905060e86121778686846124c3565b62ffffff16901b9150509392505050565b600073ffffffffffffffffffffffffffffffffffffffff83169250814260a01b178317905092915050565b50505050565b60008060006121da6201518085816121d4576121d3613145565b5b046124cc565b8093508194508295505050509193909250565b60008054905090565b6122108282604051806020016040528060008152506125d1565b5050565b60008373ffffffffffffffffffffffffffffffffffffffff1663150b7a0261223a612012565b8786866040518563ffffffff1660e01b815260040161225c9493929190613b8a565b6020604051808303816000875af192505050801561229857506040513d601f19601f820116820180604052508101906122959190613beb565b60015b612311573d80600081146122c8576040519150601f19603f3d011682016040523d82523d6000602084013e6122cd565b606091505b506000815103612309576040517fd1a57ed600000000000000000000000000000000000000000000000000000000815260040160405180910390fd5b805181602001fd5b63150b7a0260e01b7bffffffffffffffffffffffffffffffffffffffffffffffffffffffff1916817bffffffffffffffffffffffffffffffffffffffffffffffffffffffff191614915050949350505050565b60006107b284101561237557600080fd5b600084905060008490506000849050600062253d8c60046064600c600e8761239d9190613c22565b6123a79190613c65565b611324886123b59190613ccf565b6123bf9190613ccf565b6123c99190613c65565b60036123d59190613d13565b6123df9190613c65565b600c80600c600e886123f19190613c22565b6123fb9190613c65565b6124059190613d13565b6002876124129190613c22565b61241c9190613c22565b61016f6124299190613d13565b6124339190613c65565b6004600c600e886124449190613c22565b61244e9190613c65565b6112c08961245c9190613ccf565b6124669190613ccf565b6105b56124739190613d13565b61247d9190613c65565b617d4b8661248b9190613c22565b6124959190613ccf565b61249f9190613ccf565b6124a99190613c22565b6124b39190613c22565b9050809450505050509392505050565b60009392505050565b600080600080849050600062253d8c62010bd98301019050600062023ab182600402816124fc576124fb613145565b5b059050600460038262023ab102018161251857612517613145565b5b0582039150600062164b0960018401610fa0028161253957612538613145565b5b059050601f6004826105b5028161255357612552613145565b5b058403019250600061098f84605002816125705761256f613145565b5b059050600060508261098f028161258a57612589613145565b5b0585039050600b82816125a05761259f613145565b5b05945084600c0260028301039150848360318603606402010192508298508197508096505050505050509193909250565b6125db838361266e565b60008373ffffffffffffffffffffffffffffffffffffffff163b1461266957600080549050600083820390505b61261b6000868380600101945086612214565b612651576040517fd1a57ed600000000000000000000000000000000000000000000000000000000815260040160405180910390fd5b81811061260857816000541461266657600080fd5b50505b505050565b600080549050600082036126ae576040517fb562e8dd00000000000000000000000000000000000000000000000000000000815260040160405180910390fd5b6126bb600084838561215a565b600160406001901b178202600560008573ffffffffffffffffffffffffffffffffffffffff1673ffffffffffffffffffffffffffffffffffffffff16815260200190815260200160002060008282540192505081905550612732836127236000866000612160565b61272c85612829565b17612188565b6004600083815260200190815260200160002081905550600080838301905073ffffffffffffffffffffffffffffffffffffffff85169150828260007fddf252ad1be2c89b69c2b068fc378daa952ba7f163c4a11628f55a4df523b3ef600080a4600183015b8181146127d357808360007fddf252ad1be2c89b69c2b068fc378daa952ba7f163c4a11628f55a4df523b3ef600080a4600181019050612798565b506000820361280e576040517f2e07630000000000000000000000000000000000000000000000000000000000815260040160405180910390fd5b80600081905550505061282460008483856121b3565b505050565b60006001821460e11b9050919050565b6000604051905090565b600080fd5b600080fd5b60007fffffffff0000000000000000000000000000000000000000000000000000000082169050919050565b6128828161284d565b811461288d57600080fd5b50565b60008135905061289f81612879565b92915050565b6000602082840312156128bb576128ba612843565b5b60006128c984828501612890565b91505092915050565b60008115159050919050565b6128e7816128d2565b82525050565b600060208201905061290260008301846128de565b92915050565b600081519050919050565b600082825260208201905092915050565b60005b83811015612942578082015181840152602081019050612927565b60008484015250505050565b6000601f19601f8301169050919050565b600061296a82612908565b6129748185612913565b9350612984818560208601612924565b61298d8161294e565b840191505092915050565b600060208201905081810360008301526129b2818461295f565b905092915050565b6000819050919050565b6129cd816129ba565b81146129d857600080fd5b50565b6000813590506129ea816129c4565b92915050565b600060208284031215612a0657612a05612843565b5b6000612a14848285016129db565b91505092915050565b600073ffffffffffffffffffffffffffffffffffffffff82169050919050565b6000612a4882612a1d565b9050919050565b612a5881612a3d565b82525050565b6000602082019050612a736000830184612a4f565b92915050565b612a8281612a3d565b8114612a8d57600080fd5b50565b600081359050612a9f81612a79565b92915050565b60008060408385031215612abc57612abb612843565b5b6000612aca85828601612a90565b9250506020612adb858286016129db565b9150509250929050565b612aee816129ba565b82525050565b6000602082019050612b096000830184612ae5565b92915050565b600080600060608486031215612b2857612b27612843565b5b6000612b3686828701612a90565b9350506020612b4786828701612a90565b9250506040612b58868287016129db565b9150509250925092565b600080600060608486031215612b7b57612b7a612843565b5b6000612b89868287016129db565b9350506020612b9a868287016129db565b9250506040612bab868287016129db565b9150509250925092565b6000606082019050612bca6000830186612ae5565b612bd76020830185612ae5565b612be46040830184612ae5565b949350505050565b600060208284031215612c0257612c01612843565b5b6000612c1084828501612a90565b91505092915050565b612c22816128d2565b8114612c2d57600080fd5b50565b600081359050612c3f81612c19565b92915050565b600060208284031215612c5b57612c5a612843565b5b6000612c6984828501612c30565b91505092915050565b600080fd5b600080fd5b7f4e487b7100000000000000000000000000000000000000000000000000000000600052604160045260246000fd5b612cb48261294e565b810181811067ffffffffffffffff82111715612cd357612cd2612c7c565b5b80604052505050565b6000612ce6612839565b9050612cf28282612cab565b919050565b600067ffffffffffffffff821115612d1257612d11612c7c565b5b612d1b8261294e565b9050602081019050919050565b82818337600083830152505050565b6000612d4a612d4584612cf7565b612cdc565b905082815260208101848484011115612d6657612d65612c77565b5b612d71848285612d28565b509392505050565b600082601f830112612d8e57612d8d612c72565b5b8135612d9e848260208601612d37565b91505092915050565b600060208284031215612dbd57612dbc612843565b5b600082013567ffffffffffffffff811115612ddb57612dda612848565b5b612de784828501612d79565b91505092915050565b600081519050919050565b600082825260208201905092915050565b6000819050602082019050919050565b612e25816129ba565b82525050565b6000612e378383612e1c565b60208301905092915050565b6000602082019050919050565b6000612e5b82612df0565b612e658185612dfb565b9350612e7083612e0c565b8060005b83811015612ea1578151612e888882612e2b565b9750612e9383612e43565b925050600181019050612e74565b5085935050505092915050565b60006020820190508181036000830152612ec88184612e50565b905092915050565b60008060408385031215612ee757612ee6612843565b5b6000612ef585828601612a90565b9250506020612f0685828601612c30565b9150509250929050565b600067ffffffffffffffff821115612f2b57612f2a612c7c565b5b612f348261294e565b9050602081019050919050565b6000612f54612f4f84612f10565b612cdc565b905082815260208101848484011115612f7057612f6f612c77565b5b612f7b848285612d28565b509392505050565b600082601f830112612f9857612f97612c72565b5b8135612fa8848260208601612f41565b91505092915050565b60008060008060808587031215612fcb57612fca612843565b5b6000612fd987828801612a90565b9450506020612fea87828801612a90565b9350506040612ffb878288016129db565b925050606085013567ffffffffffffffff81111561301c5761301b612848565b5b61302887828801612f83565b91505092959194509250565b6000806040838503121561304b5761304a612843565b5b600061305985828601612a90565b925050602061306a85828601612a90565b9150509250929050565b7f4e487b7100000000000000000000000000000000000000000000000000000000600052602260045260246000fd5b600060028204905060018216806130bb57607f821691505b6020821081036130ce576130cd613074565b5b50919050565b7f4e487b7100000000000000000000000000000000000000000000000000000000600052601160045260246000fd5b600061310e826129ba565b9150613119836129ba565b9250828202613127816129ba565b9150828204841483151761313e5761313d6130d4565b5b5092915050565b7f4e487b7100000000000000000000000000000000000000000000000000000000600052601260045260246000fd5b600061317f826129ba565b915061318a836129ba565b92508261319a57613199613145565b5b828204905092915050565b60006131b0826129ba565b91506131bb836129ba565b92508282039050818111156131d3576131d26130d4565b5b92915050565b600081905092915050565b50565b60006131f46000836131d9565b91506131ff826131e4565b600082019050919050565b6000613215826131e7565b9150819050919050565b7f546865206576656e74206d7573742068617070656e20696e206120667574757260008201527f6520646174650000000000000000000000000000000000000000000000000000602082015250565b600061327b602683612913565b91506132868261321f565b604082019050919050565b600060208201905081810360008301526132aa8161326e565b9050919050565b7f546865206d617820737570706c79206d7573742062652067726561746572207460008201527f68616e207a65726f000000000000000000000000000000000000000000000000602082015250565b600061330d602883612913565b9150613318826132b1565b604082019050919050565b6000602082019050818103600083015261333c81613300565b9050919050565b600081905092915050565b600061335b600083613343565b9150613366826131e4565b600082019050919050565b600061337c8261334e565b9150819050919050565b600061339182612908565b61339b8185613343565b93506133ab818560208601612924565b80840191505092915050565b60006133c38284613386565b915081905092915050565b7f796f752063616e6e6f742061737369676e20616e20656d7074792076616c7565600082015250565b6000613404602083612913565b915061340f826133ce565b602082019050919050565b60006020820190508181036000830152613433816133f7565b9050919050565b60008190508160005260206000209050919050565b60006020601f8301049050919050565b600082821b905092915050565b60006008830261349c7fffffffffffffffffffffffffffffffffffffffffffffffffffffffffffffffff8261345f565b6134a6868361345f565b95508019841693508086168417925050509392505050565b6000819050919050565b60006134e36134de6134d9846129ba565b6134be565b6129ba565b9050919050565b6000819050919050565b6134fd836134c8565b613511613509826134ea565b84845461346c565b825550505050565b600090565b613526613519565b6135318184846134f4565b505050565b5b818110156135555761354a60008261351e565b600181019050613537565b5050565b601f82111561359a5761356b8161343a565b6135748461344f565b81016020851015613583578190505b61359761358f8561344f565b830182613536565b50505b505050565b600082821c905092915050565b60006135bd6000198460080261359f565b1980831691505092915050565b60006135d683836135ac565b9150826002028217905092915050565b6135ef82612908565b67ffffffffffffffff81111561360857613607612c7c565b5b61361282546130a3565b61361d828285613559565b600060209050601f831160018114613650576000841561363e578287015190505b61364885826135ca565b8655506136b0565b601f19841661365e8661343a565b60005b8281101561368657848901518255600182019150602085019450602081019050613661565b868310156136a3578489015161369f601f8916826135ac565b8355505b6001600288020188555050505b505050505050565b7f53616c65206e6f7420616e61626c656400000000000000000000000000000000600082015250565b60006136ee601083612913565b91506136f9826136b8565b602082019050919050565b6000602082019050818103600083015261371d816136e1565b9050919050565b7f53616c6520656e64656400000000000000000000000000000000000000000000600082015250565b600061375a600a83612913565b915061376582613724565b602082019050919050565b600060208201905081810360008301526137898161374d565b9050919050565b7f57726f6e672076616c7565000000000000000000000000000000000000000000600082015250565b60006137c6600b83612913565b91506137d182613790565b602082019050919050565b600060208201905081810360008301526137f5816137b9565b9050919050565b6000613807826129ba565b9150613812836129ba565b925082820190508082111561382a576138296130d4565b5b92915050565b7f4d617820616c6c6f636174696f6e20706572206164647265737320657863656560008201527f6465640000000000000000000000000000000000000000000000000000000000602082015250565b600061388c602383612913565b915061389782613830565b604082019050919050565b600060208201905081810360008301526138bb8161387f565b9050919050565b7f536f6c64204f7574000000000000000000000000000000000000000000000000600082015250565b60006138f8600883612913565b9150613903826138c2565b602082019050919050565b60006020820190508181036000830152613927816138eb565b9050919050565b7f4e487b7100000000000000000000000000000000000000000000000000000000600052603260045260246000fd5b6000613968826129ba565b91507fffffffffffffffffffffffffffffffffffffffffffffffffffffffffffffffff820361399a576139996130d4565b5b600182019050919050565b7f4552433732314d657461646174613a2055524920717565727920666f72206e6f60008201527f6e6578697374656e7420746f6b656e0000000000000000000000000000000000602082015250565b6000613a01602f83612913565b9150613a0c826139a5565b604082019050919050565b60006020820190508181036000830152613a30816139f4565b9050919050565b7f546865206d617820616c6c6f636174696f6e206d75737420626520677265617460008201527f6572207468616e207a65726f0000000000000000000000000000000000000000602082015250565b6000613a93602c83612913565b9150613a9e82613a37565b604082019050919050565b60006020820190508181036000830152613ac281613a86565b9050919050565b7f456e74657220612076616c696420616d6f756e74000000000000000000000000600082015250565b6000613aff601483612913565b9150613b0a82613ac9565b602082019050919050565b60006020820190508181036000830152613b2e81613af2565b9050919050565b600081519050919050565b600082825260208201905092915050565b6000613b5c82613b35565b613b668185613b40565b9350613b76818560208601612924565b613b7f8161294e565b840191505092915050565b6000608082019050613b9f6000830187612a4f565b613bac6020830186612a4f565b613bb96040830185612ae5565b8181036060830152613bcb8184613b51565b905095945050505050565b600081519050613be581612879565b92915050565b600060208284031215613c0157613c00612843565b5b6000613c0f84828501613bd6565b91505092915050565b6000819050919050565b6000613c2d82613c18565b9150613c3883613c18565b9250828203905081811260008412168282136000851215161715613c5f57613c5e6130d4565b5b92915050565b6000613c7082613c18565b9150613c7b83613c18565b925082613c8b57613c8a613145565b5b600160000383147f800000000000000000000000000000000000000000000000000000000000000083141615613cc457613cc36130d4565b5b828205905092915050565b6000613cda82613c18565b9150613ce583613c18565b925082820190508281121560008312168382126000841215161715613d0d57613d0c6130d4565b5b92915050565b6000613d1e82613c18565b9150613d2983613c18565b9250828202613d3781613c18565b91507f80000000000000000000000000000000000000000000000000000000000000008414600084121615613d6f57613d6e6130d4565b5b8282058414831517613d8457613d836130d4565b5b509291505056fea26469706673582212209233631a89ef2d779094a50b94a3402170f317baff4f0649947be0f61dc1809f64736f6c63430008110033",
  "linkReferences": {},
  "deployedLinkReferences": {}
}